:020000040800F2
:10000000005000205D150008611200086912000808
:100010007112000879120008811200080000000027
:10002000000000000000000000000000891200082D
:100030009512000800000000A1120008AD1200088F
:10004000A5150008A5150008A5150008A5150008A8
:10005000A5150008A5150008A5150008A515000898
:10006000A5150008A5150008A5150008A515000888
:10007000A5150008A5150008A5150008A515000878
:10008000A5150008A5150008A5150008A515000868
:10009000B9120008A5150008A5150008A515000847
:1000A000A5150008A5150008A5150008A515000848
:1000B000A5150008A5150008A5150008A515000838
:1000C000A5150008A5150008A5150008A515000828
:1000D000A5150008A5150008A5150008A515000818
:1000E000A5150008A5150008A515000800000000CA
:1000F0000000000000000000000000000000000000
:0C01000000000000000000005FF808F1A3
:10010C0010B5054C237833B9044B13B10448AFF345
:10011C0000800123237010BD7C0100200000000032
:10012C0008B3000808B5034B1BB103490348AFF3F0
:10013C00008008BD000000008001002008B300080A
:10014C0080F0004002E000BF81F0004142001FBF80
:10015C005FEA410392EA030F7FEA226C7FEA236C89
:10016C006AD04FEA1262D2EB1363C1BFD21841407E
:10017C0048404140B8BF5B42192B88BF704710F014
:10018C00004F40F4000020F07F4018BF404211F0B7
:10019C00004F41F4000121F07F4118BF494292EA1F
:1001AC00030F3FD0A2F1010241FA03FC10EB0C004B
:1001BC00C3F1200301FA03F100F0004302D54942D8
:1001CC0060EB4000B0F5000F13D3B0F1807F06D385
:1001DC0040084FEA310102F10102FE2A51D2B1F17D
:1001EC00004F40EBC25008BF20F0010040EA030072
:1001FC007047490040EB0000013A28BFB0F5000FF2
:10020C00EDD2B0FA80FCACF1080CB2EB0C0200FAA7
:10021C000CF0AABF00EBC25052421843BCBFD040F6
:10022C001843704792F0000F81F4000106BF80F470
:10023C0000000132013BB5E74FEA41037FEA226C33
:10024C0018BF7FEA236C21D092EA030F04D092F0FE
:10025C00000F08BF0846704790EA010F1CBF002032
:10026C00704712F07F4F04D1400028BF40F000408F
:10027C00704712F100723CBF00F50000704700F0AF
:10028C00004343F0FE4040F4000070477FEA2262D6
:10029C0016BF08467FEA23630146420206BF5FEAA7
:1002AC00412390EA010F40F4800070474FF00003A7
:1002BC0004E000BF10F0004348BF40425FEA000C6E
:1002CC0008BF704743F0964301464FF000001CE016
:1002DC0050EA010208BF70474FF000030AE000BF6C
:1002EC0050EA010208BF704711F0004302D54042AA
:1002FC0061EB41015FEA010C02BF8446014600201C
:10030C0043F0B64308BFA3F18053A3F50003BCFA36
:10031C008CF2083AA3EBC25310DB01FA02FC6344E3
:10032C0000FA02FCC2F12002BCF1004F20FA02F2EA
:10033C0043EB020008BF20F00100704702F12002DD
:10034C0001FA02FCC2F1200250EA4C0021FA02F23E
:10035C0043EB020008BF20EADC7070474FF0FF0C43
:10036C001CEAD0521EBF1CEAD15392EA0C0F93EA3E
:10037C000C0F6FD01A4480EA010C400218BF5FEAE0
:10038C0041211ED04FF0006343EA501043EA511153
:10039C00A0FB01310CF00040B1F5000F3EBF49004D
:1003AC0041EAD3715B0040EA010062F17F02FD2A51
:1003BC001DD8B3F1004F40EBC25008BF20F0010034
:1003CC00704790F0000F0CF0004C08BF49024CEA4B
:1003DC00502040EA51207F3AC2BFD2F1FF0340EADD
:1003EC00C250704740F400004FF00003013A5DDC4E
:1003FC0012F1190FDCBF00F000407047C2F100028F
:10040C00410021FA02F1C2F1200200FA02FC5FEA7B
:10041C00310040F1000053EA4C0308BF20EADC70C5
:10042C00704792F0000F00F0004C02BF400010F437
:10043C00000F013AF9D040EA0C0093F0000F01F0E4
:10044C00004C02BF490011F4000F013BF9D041EA06
:10045C000C018FE70CEAD15392EA0C0F18BF93EA08
:10046C000C0F0AD030F0004C18BF31F0004CD8D132
:10047C0080EA010000F00040704790F0000F17BFB9
:10048C0090F0004F084691F0000F91F0004F14D0FF
:10049C0092EA0C0F01D142020FD193EA0C0F03D157
:1004AC004B0218BF084608D180EA010000F000405A
:1004BC0040F0FE4040F40000704740F0FE4040F435
:1004CC00400070474FF0FF0C1CEAD0521EBF1CEAD4
:1004DC00D15392EA0C0F93EA0C0F69D0A2EB0302F2
:1004EC0080EA010C49024FEA402037D04FF080538C
:1004FC0043EA111143EA10130CF000408B4238BF51
:10050C005B0042F17D024FF4000C8B4224BF5B1A5E
:10051C0040EA0C00B3EB510F24BFA3EB510340EAAC
:10052C005C00B3EB910F24BFA3EB910340EA9C005A
:10053C00B3EBD10F24BFA3EBD10340EADC001B01CA
:10054C0018BF5FEA1C1CE0D1FD2A3FF650AF8B426E
:10055C0040EBC25008BF20F0010070470CF0004C7B
:10056C004CEA50207F32C2BFD2F1FF0340EAC250A6
:10057C00704740F400004FF00003013A37E792F067
:10058C00000F00F0004C02BF400010F4000F013AC5
:10059C00F9D040EA0C0093F0000F01F0004C02BFC0
:1005AC00490011F4000F013BF9D041EA0C0195E729
:1005BC000CEAD15392EA0C0F08D142027FF47DAFC2
:1005CC0093EA0C0F7FF470AF084676E793EA0C0FB2
:1005DC0004D14B023FF44CAF08466EE730F0004CB0
:1005EC0018BF31F0004CCAD130F000427FF45CAF40
:1005FC0031F000437FF43CAF5FE700BF80B584B0BF
:10060C0000AF3B1D00221A605A609A60184B194AC1
:10061C001A60174B00229A60154B00221A73144B68
:10062C0000221A75124B4FF46022DA61104B002233
:10063C005A600F4B01221A610D4801F035F8034640
:10064C00002B01D000F0CDFD04237B600123BB60A7
:10065C000023FB603B1D1946054801F0E9FA0346EF
:10066C00002B01D000F0BDFD00BF1037BD4680BD92
:10067C00980100200024014080B588B000AF78605C
:10068C0007F1100300221A605A609A60DA607B68E6
:10069C001B68144A934221D1134B9B69124A43F4B1
:1006AC0000739361104B9B6903F40073FB60FB6850
:1006BC000D4B9B690C4A43F0040393610A4B9B69F5
:1006CC0003F00403BB60BB6830233B6103237B61F5
:1006DC0007F110031946054801F04CFD00BF203707
:1006EC00BD4680BD002401400010024000080140BE
:1006FC0080B500AF0E4B1B6800225A630C4B1B6875
:10070C0000229A63002204210A4801F0CEFE002246
:10071C000821084801F0C9FE00220121064801F019
:10072C00C4FE00220221044801F0BFFE00BF80BDC0
:10073C009402002000080140000C014080B582B0FA
:10074C0000AF0346FB80012204210F4801F0ADFEEF
:10075C00002208210C4801F0A8FE012201210B48BF
:10076C0001F0A3FE00220221084801F09EFE084B76
:10077C001B68FA885A63064B1B68FA889A6300BF99
:10078C000837BD4680BD00BF00080140000C014089
:10079C009402002080B582B000AF0346FB8000229B
:1007AC0004210F4801F081FE012208210C4801F0C0
:1007BC007CFE002201210B4801F077FE0122022170
:1007CC00084801F072FE084B1B68FA885A63064B06
:1007DC001B68FA889A6300BF0837BD4680BD00BF0E
:1007EC0000080140000C01409402002080B582B04A
:1007FC0000AF0346FB80002204210F4801F055FE98
:10080C00012208210C4801F050FE012201210B4865
:10081C0001F04BFE00220221084801F046FE084B75
:10082C001B68FA885A63064B1B68FA889A6300BFE8
:10083C000837BD4680BD00BF00080140000C0140D8
:10084C009402002080B582B000AF0346FB800122E9
:10085C0004210F4801F029FE002208210C4801F068
:10086C0024FE002201210B4801F01FFE012202216F
:10087C00084801F01AFE084B1B68FA885A63064BAD
:10088C001B68FA889A6300BF0837BD4680BD00BF5D
:10089C0000080140000C01409402002080B586B095
:1008AC0000AF0346FB80B7F90630002B57D0B7F9E1
:1008BC000630002B06DD01224FF400512A4801F0CE
:1008CC00F4FD09E000224FF40051274801F0EDFD42
:1008DC00FB885B429BB2FB8000237B6139E00122E9
:1008EC004FF48051204801F0E0FD00233B6102E011
:1008FC003B6901333B613B69B3F5FA6FF8DB0022CE
:10090C004FF48051184801F0D0FD0023FB6002E049
:10091C00FB680133FB60FB68B3F5FA6FF8DB4FF44F
:10092C000051114801F0AAFD0346012B07D10F4BD2
:10093C00D3F8153001330D4AC2F8153006E00B4BD5
:10094C00D3F81530013B094AC2F815307B690133E5
:10095C007B61B7F906307A699A42C0DB00E000BFD0
:10096C001837BD4680BD00BF000C0140C8010020F7
:10097C0080B586B004AF0323FB716423029301237B
:10098C000193FB1D0093012380225221044801F0A6
:10099C0001FF322000F064FE00BF0837BD4680BD69
:1009AC00E401002080B590B004AFF860B9607A60C3
:1009BC003B600A2302930823019307F1140300936D
:1009CC00012394225221444801F0DEFF0346002B00
:1009DC0063D17B7D1B021AB23B7D1BB213431BB24E
:1009EC00FB85FB7D1B021AB2BB7D1BB213431BB2F2
:1009FC00BB857B7E1B021AB23B7E1BB213431BB220
:100A0C007B85FB7E1B021AB2BB7E1BB213431BB24F
:100A1C003B853B68FA8D1A80FB8D002B33D0BA8D49
:100A2C0013461B029A1AFB8DB2FBF3F37B627A8D91
:100A3C0013461B029A1AFB8DB2FBF3F33B623A8D01
:100A4C0013461B029A1AFB8DB2FBF3F3FB617B6A14
:100A5C00FF2B02D87B6A9AB200E0FF22FB681A8057
:100A6C003B6AFF2B02D83B6A9AB200E0FF22BB68BC
:100A7C001A80FB69FF2B02D8FB699AB200E0FF22B7
:100A8C007B681A8024E0FB6800221A80BB68002275
:100A9C001A807B6800221A801AE03B6800221A80B8
:100AAC00FB6800221A80BB6800221A807B68002237
:100ABC001A800323FB740A2302930123019307F189
:100ACC0013030093012380225221034801F062FE9C
:100ADC0000BF3037BD4680BDE401002080B588B032
:100AEC0004AF786000233B8114230293022301930B
:100AFC0007F10803009301230C228021154801F013
:100B0C0043FF0346FB73FB7B002B1BD13B7A1B0281
:100B1C001AB27B7A1BB213431BB2BB81BB8918463A
:100B2C00FFF7C4FB03460C491846FFF717FC0346B6
:100B3C004FF08B411846FFF7C5FC03461A467B68FD
:100B4C001A6002E07B68054A1A6000BF1037BD4688
:100B5C0080BD00BF380200200000B443000080BFFD
:100B6C0080B584B000AF0023FB73114B7B60022374
:100B7C00BB6009E0BB687A6813441A78FB7B53406E
:100B8C00FB73BB680133BB60BB68192BF2D9084AF5
:100B9C00FB7B93761B21064809F0A6FF4FF400510E
:100BAC00044801F09AFC00BF1037BD4680BD00BF61
:100BBC00C80100200010014080B588B000AF07F1DB
:100BCC00100300221A605A609A60DA60394B9B69F4
:100BDC00384A43F010039361364B9B6903F01003C2
:100BEC00FB60FB68334B9B69324A43F020039361F3
:100BFC00304B9B6903F02003BB60BB682D4B9B699A
:100C0C002C4A43F0040393612A4B9B6903F00403C1
:100C1C007B607B68274B9B69264A43F008039361F2
:100C2C00244B9B6903F008033B603B6800224FF4A4
:100C3C000051214801F039FC00224FF486711F4805
:100C4C0001F033FC002243F203011D4801F02DFC9E
:100C5C004FF400533B6101237B610023BB610223F2
:100C6C00FB6107F110031946134801F083FA4FF4A6
:100C7C0086733B6101237B610023BB610223FB6113
:100C8C0007F1100319460D4801F074FA43F20303FF
:100C9C003B6101237B610023BB610223FB6107F1F4
:100CAC0010031946064801F065FA00BF2037BD460F
:100CBC0080BD00BF00100240001001400008014040
:100CCC00000C014080B500AF124B134A1A60114B57
:100CDC00124A5A600F4B00229A600E4B0022DA60C7
:100CEC000C4B4FF480421A610A4B00225A61094B9B
:100CFC0000229A61074B0022DA61064B00221A622D
:100D0C00044801F003FC0346002B01D000F069FA03
:100D1C0000BF80BDE401002000540040A08601000B
:100D2C0080B500AF124B134A1A60114B124A5A602D
:100D3C000F4B00229A600E4B0022DA600C4B4FF4E2
:100D4C0080421A610A4B00225A61094B00229A61B7
:100D5C00074B0022DA61064B00221A62044801F0AC
:100D6C00D5FB0346002B01D000F03BFA00BF80BD41
:100D7C003802002000580040A086010080B58AB0DF
:100D8C0000AF786007F1180300221A605A609A606D
:100D9C00DA607B681B682B4A934224D12A4B9B69EF
:100DAC00294A43F008039361274B9B6903F008031E
:100DBC007B617B69C023BB611223FB6103237B62D4
:100DCC0007F118031946214801F0D4F91E4BDB69D1
:100DDC001D4A43F40013D3611B4BDB6903F400136E
:100DEC003B613B6929E07B681B68194A934224D11B
:100DFC00154B9B69144A43F008039361124B9B6992
:100E0C0003F00803FB60FB684FF44063BB611223E3
:100E1C00FB6103237B6207F1180319460B4801F0B1
:100E2C00A9F9094BDB69084A43F48003D361064BEB
:100E3C00DB6903F48003BB60BB6800BF2837BD4689
:100E4C0080BD00BF0054004000100240000C014067
:100E5C000058004080B586B000AF00F09FFB00F05A
:100E6C0063F9FFF7A9FEFFF72DFF00F02FFA00F052
:100E7C00F9FAFFF7C3FBFFF753FF09F077FD9A4B25
:100E8C00AA221A70984B55225A70974B02229A70CC
:100E9C000021964805F052F80421944805F04EF8CC
:100EAC00FFF766FDC82000F0DBFB00F0CFFB02462D
:100EBC008F4B1B68D31AB3F5FA7F09D34FF400514B
:100ECC008C4801F00AFB00F0C1FB0346884A136012
:100EDC00894B1B78FF2B10D1874B5B78012B0CD1E6
:100EEC00864B7B603B1D0421184609F0FDFD022258
:100EFC00002181480AF0D6F958E07F4B1B78AA2BC9
:100F0C0054D17D4B5B78552B50D17B4B9B78BB756B
:100F1C00794B1B791B021AB2774BDB781BB213434C
:100F2C00BB82BB7D032B1AD16F4BBA8AA3F813205B
:100F3C00B7F91430002B04DDBB8A1846FFF7FEFB13
:100F4C002FE0B7F91430002B06DABB8A5B429BB258
:100F5C001846FFF71FFC24E0FFF7CAFB21E0BB7D1E
:100F6C00052B16D1B7F91430002B04DDBB8A1846BB
:100F7C00FFF768FC15E0B7F91430002B06DABB8AD2
:100F8C005B429BB21846FFF731FC0AE0FFF7B0FB5F
:100F9C0007E0BB7D042B04D1B7F914301846FFF7DA
:100FAC007DFC0622002154480AF07CF907F1080365
:100FBC0000221A605A609A600423BB600123FB6014
:100FCC0002233B6107F1080319464D4800F030FE3F
:100FDC004B4800F041FC0A21494800F017FD03463C
:100FEC00002B07D1464800F017FE03469AB23E4B41
:100FFC00A3F80320424800F0DDFC0523BB6001236D
:10100C00FB6002233B6107F1080319463C4800F0E2
:10101C000FFE3B4800F020FC0A21394800F0F6FC9A
:10102C000346002B07D1364800F0F6FD03469AB272
:10103C002D4BA3F80520324800F0BCFC0023FB75B7
:10104C000223012252212F4801F012FF0346002BEC
:10105C000AD1FB7D43F00103FB752B4B2B4A2C492A
:10106C002C48FFF79FFC15E01F4B0022DA71002281
:10107C001A721D4B00225A7200229A721A4B0022CD
:10108C00DA7200221A73184B00225A7300229A73D8
:10109C00FFF76EFC0223012280211F4801F0E8FEBD
:1010AC000346002B07D1FB7D43F00203FB751B4865
:1010BC00FFF714FD03E00C4B194AC3F80F200A4A42
:1010CC00FB7D537600F0C2FA0246164B1B68D31A0E
:1010DC00632B7FF6EAAEFFF743FD00F0B7FA034649
:1010EC00104A1360E1E600BFC80100209402002002
:1010FC008C02002000100140F0050020AA550101CF
:10110C0098010020E4010020D5010020D30100202B
:10111C00D1010020CF01002038020020D70100208F
:10112C00000080BF9002002080B594B000AF07F1A2
:10113C0028032822002118460AF0B4F807F11403FA
:10114C0000221A605A609A60DA601A613B1D002214
:10115C001A605A609A60DA600123BB624FF48033E4
:10116C00FB6200233B630123BB6302237B644FF4CC
:10117C008033BB644FF4E013FB6407F1280318467B
:10118C0004F0B8F80346002B01D000F02AF80F2326
:10119C007B610223BB610023FB614FF480633B62E4
:1011AC0000237B6207F114030221184604F024FB90
:1011BC000346002B01D000F014F812237B604FF48F
:1011CC000043FB6000233B613B1D184604F0A2FC6E
:1011DC000346002B01D000F004F800BF5037BD4689
:1011EC0080BD80B400AF72B600BF00BFFDE7000049
:1011FC0080B485B000AF154B9B69144A43F00103D2
:10120C009361124B9B6903F00103BB60BB680F4BEE
:10121C00DB690E4A43F08053D3610C4BDB6903F05E
:10122C0080537B607B680A4B5B68FB60FB6823F038
:10123C00E063FB60FB6843F00073FB60044AFB68EF
:10124C00536000BF1437BD4680BC7047001002408D
:10125C000000014080B400AF00BFFDE780B400AFD8
:10126C0000BFFDE780B400AF00BFFDE780B400AF66
:10127C0000BFFDE780B400AF00BFFDE780B400AF56
:10128C0000BFBD4680BC704780B400AF00BFBD46F8
:10129C0080BC704780B400AF00BFBD4680BC7047B7
:1012AC0080B500AF00F0C0F900BF80BD80B500AFC5
:1012BC00024802F0DAFB00BF80BD00BFF00F002037
:1012CC0080B400AF00BFBD4680BC704780B58EB007
:1012DC0000AF07F1280300221A605A609A60DA60A6
:1012EC0007F1200300221A605A603B1D00221A608D
:1012FC005A609A60DA601A615A619A61324B4FF007
:10130C0080421A60304B00225A602F4B00229A60A8
:10131C002D4B4FF6FF72DA602B4B00221A612A4BD1
:10132C0000229A61284804F061FD0346002B01D08D
:10133C00FFF757FF4FF48053BB6207F128031946A0
:10134C00214804F05FFF0346002B01D0FFF749FF53
:10135C001D4804F09AFD0346002B01D0FFF741FF16
:10136C0000233B6200237B6207F1200319461648D9
:10137C0005F0C0FA0346002B01D0FFF732FF6023C3
:10138C007B600023BB600023FB6000237B613B1D63
:10139C00002219460C4804F073FE0346002B01D0C2
:1013AC00FFF71FFF3B1D04221946074804F068FE97
:1013BC000346002B01D0FFF714FF034800F022F87E
:1013CC0000BF3837BD4680BD9402002080B485B084
:1013DC0000AF78607B681B68B3F1804F0BD1084B72
:1013EC00DB69074A43F00103D361054BDB6903F06A
:1013FC000103FB60FB6800BF1437BD4680BC70471F
:10140C000010024080B588B000AF786007F110037F
:10141C0000221A605A609A60DA607B681B68B3F12C
:10142C00804F17D10D4B9B690C4A43F00403936119
:10143C000A4B9B6903F00403FB60FB6803233B61CD
:10144C0002237B610223FB6107F110031946044858
:10145C0000F090FE00BF2037BD4680BD001002405A
:10146C000008014080B500AF114B124A1A60104BB6
:10147C004FF4E1325A600E4B00229A600C4B002262
:10148C00DA600B4B00221A61094B0C225A61084B93
:10149C0000229A61064B0022DA61054805F088FAB1
:1014AC000346002B01D0FFF79CFE00BF80BD00BFA0
:1014BC00DC0200200038014080B588B000AF7860B5
:1014CC0007F1100300221A605A609A60DA607B6898
:1014DC001B681C4A934231D11B4B9B691A4A43F43B
:1014EC0080439361184B9B6903F48043FB60FB685A
:1014FC00154B9B69144A43F004039361124B9B698F
:10150C0003F00403BB60BB684FF400733B61022320
:10151C007B610323FB6107F1100319460B4800F0B4
:10152C0029FE4FF480633B6100237B610023BB6188
:10153C0007F110031946054800F01CFE00BF2037C8
:10154C00BD4680BD0038014000100240000801403B
:10155C00FFF7B6FE0B480C490C4A002302E0D458A6
:10156C00C4500433C4188C42F9D3094A094C0023E3
:10157C0001E013600432A242FBD309F09BFEFFF79B
:10158C0069FC7047000000207C010020B0B300080B
:10159C007C010020E8140020FEE7000080B500AFBD
:1015AC00084B1B68074A43F010031360032000F03C
:1015BC009FFD0F2000F008F8FFF71AFE00231846D5
:1015CC0080BD00BF0020024080B582B000AF7860C3
:1015DC00124B1A68124B1B7819464FF47A73B3FBF3
:1015EC00F1F3B2FBF3F3184600F0B7FD0346002B02
:1015FC0001D001230EE07B680F2B0AD800227968FA
:10160C004FF0FF3000F07FFD064A7B68136000232B
:10161C0000E0012318460837BD4680BD00000020BD
:10162C00080000200400002080B400AF054B1B789C
:10163C001A46054B1B681344034A136000BFBD4692
:10164C0080BC7047080000202403002080B400AF49
:10165C00024B1B681846BD4680BC70472403002013
:10166C0080B584B000AF7860FFF7F0FFB8607B689E
:10167C00FB60FB68B3F1FF3F05D00A4B1B781A46A1
:10168C00FB681344FB6000BFFFF7E0FF0246BB683A
:10169C00D31AFA689A42F7D800BF00BF1037BD467C
:1016AC0080BD00BF0800002080B586B000AF786018
:1016BC000023FB7500233B610023BB600023FB6010
:1016CC007B68002B01D10123BEE07B689B68002B5B
:1016DC007B689B6A002B09D17B680022DA627B68ED
:1016EC00002283F824207868FEF7C6FF786800F0A3
:1016FC00F1FB0346FB757B689B6A03F01003002B20
:10170C0040F09980FB7D002B40F095807B689B6AB4
:10171C0023F4885323F0020343F002027B689A629D
:10172C007B685A687B68DB691A437B681B7B5B00B0
:10173C001343BA681343BB607B689B68B3F5807F27
:10174C0003D07B689B68012B02D14FF4807300E0BF
:10175C0000233A6913433B617B681B7D012B19D134
:10176C007B681B7B002B09D17B689B69013B5A036F
:10177C003B69134343F400633B610BE07B689B6A5A
:10178C0043F020027B689A627B68DB6A43F00102BB
:10179C007B68DA627B681B685B6823F469417B6851
:1017AC001B683A690A435A607B681B689A68284B25
:1017BC0013407A681268B9680B4393607B689B6826
:1017CC00B3F5807F03D07B689B68012B04D17B68C9
:1017DC001B69013B1B05FB607B681B68DB6A23F400
:1017EC0070017B681B68FA680A43DA627B681B68C5
:1017FC009A68184B1340BA689A420BD17B68002246
:10180C00DA627B689B6A23F0030343F001027B6876
:10181C009A6218E07B689B6A23F0120343F0100273
:10182C007B689A627B68DB6A43F001027B68DA6250
:10183C000123FB7507E07B689B6A43F010027B6811
:10184C009A620123FB75FB7D18461837BD4680BD97
:10185C00FDF7E1FFFE0E1FFF80B584B000AF78608E
:10186C000023FB737B6893F82430012B01D10223F6
:10187C0098E07B68012283F82420786800F0D0FA85
:10188C000346FB73FB7B002B40F087807B689B6AD5
:10189C0023F4407323F0010343F480727B689A6253
:1018AC007B681B68414A934205D1414B5B6803F44A
:1018BC007023002B15D17B689B6A23F480127B6804
:1018CC009A627B681B685B6803F48063002B26D0EC
:1018DC007B689B6A23F4405343F480527B689A6282
:1018EC001DE07B689B6A43F480127B689A627B687C
:1018FC001B682F4A934204D07B681B682B4A934287
:10190C000DD12B4B5B6803F48063002B07D07B68F5
:10191C009B6A23F4405343F480527B689A627B6841
:10192C009B6A03F48053002B06D07B68DB6A23F0A0
:10193C0006027B68DA6202E07B680022DA627B686E
:10194C00002283F824207B681B686FF002021A6067
:10195C007B681B689B6803F46023B3F5602F13D17D
:10196C007B681B68114A934205D1114B5B6803F4E9
:10197C007023002B08D17B681B689A687B681B68F6
:10198C0042F4A0029A600CE07B681B689A687B6842
:10199C001B6842F480129A6003E07B68002283F893
:1019AC002420FB7B18461037BD4680BD0028014023
:1019BC000024014080B584B000AF78600023FB7335
:1019CC007B6893F82430012B01D102231AE07B6849
:1019DC00012283F82420786800F07CFA0346FB731C
:1019EC00FB7B002B09D17B689B6A23F4885323F083
:1019FC00010343F001027B689A627B68002283F842
:101A0C002420FB7B18461037BD4680BD90B587B0AF
:101A1C0000AF7860396000237B610023FB600023FA
:101A2C003B61FFF713FE78617B681B689B6803F4CE
:101A3C008073002B0BD07B689B6A43F020027B6881
:101A4C009A627B68002283F824200123D3E07B6810
:101A5C001B685B6803F48073002B31D17B681B68B7
:101A6C00DB6A03F47003002B2AD121E03B68B3F14D
:101A7C00FF3F1DD03B68002B07D0FFF7E7FD024668
:101A8C007B69D31A3A689A4212D27B681B681B682E
:101A9C0003F00203002B0BD17B689B6A43F004021A
:101AAC007B689A627B68002283F824200323A2E0DF
:101ABC007B681B681B6803F00203002BD6D070E018
:101ACC004F4B1C68022004F0DBF80346B4FBF3F226
:101ADC007B681B6819694B4B0B40002B18D17B683A
:101AEC001B68D968484B0B40002B11D17B681B68D5
:101AFC001969464B0B40002B08D17B681B68D968D1
:101B0C00434B0B40002B01D1142320E029231EE072
:101B1C007B681B6819693D4B0B40002B06D17B6819
:101B2C001B68D9683A4B0B40002B0DD07B681B68A7
:101B3C001969384B0B40002B08D17B681B68D9689E
:101B4C00344B0B40002B01D1542300E0FC2302FB4F
:101B5C0003F33B6121E03B68B3F1FF3F1AD03B68D4
:101B6C00002B07D0FFF772FD02467B69D31A3A6847
:101B7C009A420FD2FB683A699A420BD97B689B6AEE
:101B8C0043F004027B689A627B68002283F824206D
:101B9C00032330E0FB680133FB60FB683A699A422F
:101BAC00D9D87B681B686FF012021A607B689B6A3D
:101BBC0043F400727B689A627B681B689B6803F431
:101BCC006023B3F5602F15D17B681B7B002B11D1E3
:101BDC007B689B6A23F480727B689A627B689B6A41
:101BEC0003F48053002B05D17B689B6A43F0010200
:101BFC007B689A62002318461C37BD4690BD00BF17
:101C0C000000002024499224244992009224491275
:101C1C00922449004992240080B483B000AF7860CC
:101C2C007B681B68DB6C18460C37BD4680BC704764
:101C3C0080B485B000AF786039600023FB7300235B
:101C4C00BB607B6893F82430012B01D10223DCE0CC
:101C5C007B68012283F824203B685B68062B1CD828
:101C6C007B681B68596B3B685A6813469B0013448E
:101C7C00053B1F2202FA03F3DB4319403B6818684B
:101C8C003B685A6813469B001344053B00FA03F269
:101C9C007B681B680A435A633CE03B685B680C2B0F
:101CAC001CD87B681B68196B3B685A6813469B00F1
:101CBC001344233B1F2202FA03F3DB4319403B6816
:101CCC0018683B685A6813469B001344233B00FA80
:101CDC0003F27B681B680A431A631BE07B681B6872
:101CEC00D96A3B685A6813469B001344413B1F2238
:101CFC0002FA03F3DB4319403B6818683B685A68E7
:101D0C0013469B001344413B00FA03F27B681B68AB
:101D1C000A43DA623B681B68092B1CD97B681B6879
:101D2C00D9683B681A6813465B0013441E3B0722B4
:101D3C0002FA03F3DB4319403B6898683B681A6866
:101D4C0013465B0013441E3B00FA03F27B681B68CE
:101D5C000A43DA6019E07B681B6819693B681A68EA
:101D6C0013465B001344072202FA03F3DB431940CA
:101D7C003B6898683B681A6813465B00134400FA8A
:101D8C0003F27B681B680A431A613B681B68102BC3
:101D9C0003D03B681B68112B32D17B681B681D4A32
:101DAC00934225D17B681B689B6803F40003002BCE
:101DBC0026D17B681B689A687B681B6842F400021A
:101DCC009A603B681B68102B1AD1134B1B68134A83
:101DDC00A2FB03239A0C13469B0013445B00BB60CD
:101DEC0002E0BB68013BBB60BB68002BF9D107E08C
:101DFC007B689B6A43F020027B689A620123FB7329
:101E0C007B68002283F82420FB7B18461437BD46E0
:101E1C0080BC7047002401400000002083DE1B437F
:101E2C0080B584B000AF78600023FB600023BB60FA
:101E3C007B681B689B6803F00103012B40D07B6817
:101E4C001B689A687B681B6842F001029A601F4B02
:101E5C001B681F4AA2FB03239B0CBB6002E0BB6800
:101E6C00013BBB60BB68002BF9D1FFF7EFFBF860BF
:101E7C001FE0FFF7EBFB0246FB68D31A022B18D9C5
:101E8C007B681B689B6803F00103012B11D07B68F6
:101E9C009B6A43F010027B689A627B68DB6A43F0B2
:101EAC0001027B68DA627B68002283F8242001231C
:101EBC0007E07B681B689B6803F00103012BD8D1FA
:101ECC00002318461037BD4680BD00BF000000201F
:101EDC0083DE1B4380B584B000AF78600023FB60C9
:101EEC007B681B689B6803F00103012B2ED17B6878
:101EFC001B689A687B681B6822F001029A60FFF7E6
:101F0C00A5FBF8601BE0FFF7A1FB0246FB68D31AA8
:101F1C00022B14D97B681B689B6803F00103012B0F
:101F2C000DD17B689B6A43F010027B689A627B68D8
:101F3C00DB6A43F001027B68DA62012307E07B680D
:101F4C001B689B6803F00103012BDCD000231846AF
:101F5C001037BD4680BD000080B485B000AF7860FE
:101F6C007B6803F00703FB600C4BDB68BB60BA6853
:101F7C004FF6FF031340BB60FB681A02BB681343A8
:101F8C0043F0BF6343F40033BB60044ABB68D360C7
:101F9C0000BF1437BD4680BC704700BF00ED00E0A9
:101FAC0080B400AF044BDB681B0A03F00703184630
:101FBC00BD4680BC704700BF00ED00E080B483B02C
:101FCC0000AF0346FB7197F90730002B0BDBFB7955
:101FDC0003F01F02064997F907305B09012000FA4C
:101FEC0002F241F8232000BF0C37BD4680BC70477D
:101FFC0000E100E080B483B000AF03463960FB71B0
:10200C0097F90730002B0ADB3B68DAB20C4997F9D9
:10201C0007301201D2B20B4483F800230AE03B686C
:10202C00DAB20849FB7903F00F03043B1201D2B278
:10203C000B441A7600BF0C37BD4680BC704700BFFE
:10204C0000E100E000ED00E080B489B000AFF86082
:10205C00B9607A60FB6803F00703FB61FB69C3F1AD
:10206C000703042B28BF0423BB61FB690433062B35
:10207C0002D9FB69033B00E000237B614FF0FF3288
:10208C00BB6902FA03F3DA43BB681A407B699A40D6
:10209C004FF0FF317B6901FA03F3D9437B680B40A6
:1020AC00134318462437BD4680BC704780B582B0B8
:1020BC0000AF78607B68013BB3F1807F01D30123D3
:1020CC000FE00A4A7B68013B53600F214FF0FF3051
:1020DC00FFF790FF054B00229A60044B07221A6011
:1020EC00002318460837BD4680BD00BF10E000E055
:1020FC0080B582B000AF78607868FFF72DFF00BF25
:10210C000837BD4680BD80B586B000AF0346B960C8
:10211C007A60FB7300237B61FFF742FF78617A687A
:10212C00B9687869FFF790FF024697F90F301146AE
:10213C001846FFF75FFF00BF1837BD4680BD80B55E
:10214C0082B000AF0346FB7197F907301846FFF7D2
:10215C0035FF00BF0837BD4680BD80B582B000AFEB
:10216C0078607868FFF7A2FF034618460837BD462B
:10217C0080BD000080B48BB000AF78603960002364
:10218C007B6200233B6269E101227B6A02FA03F362
:10219C00FB613B681B68FA691340BB61BA69FB6958
:1021AC009A4240F058813B685B689A4A93425ED0F1
:1021BC00984A934275D8984A934258D0964A93427B
:1021CC006FD8964A934252D0944A934269D8944A13
:1021DC0093424CD0924A934263D8924A934246D04F
:1021EC00904A93425DD8122B2AD8122B59D801A2AF
:1021FC0052F823F07B2200085522000867220008C1
:10220C00A9220008AF220008AF220008AF22000864
:10221C00AF220008AF220008AF220008AF2200084E
:10222C00AF220008AF220008AF220008AF2200083E
:10223C00AF220008AF2200085D22000871220008BE
:10224C00794A934213D02CE03B68DB683B6229E06F
:10225C003B68DB6804333B6224E03B68DB68083393
:10226C003B621FE03B68DB680C333B621AE03B6867
:10227C009B68002B02D104233B6213E03B689B68F4
:10228C00012B05D108233B627B68FA691A6109E0CE
:10229C0008233B627B68FA695A6103E000233B62C6
:1022AC0000E000BFBB69FF2B01D87B6801E07B68B5
:1022BC0004337B61BB69FF2B02D87B6A9B0002E075
:1022CC007B6A083B9B003B617B691A680F213B6969
:1022DC0001FA03F3DB431A40396A3B6901FA03F351
:1022EC001A437B691A603B685B6803F08053002BD0
:1022FC0000F0B1804D4B9B694C4A43F00103936154
:10230C004A4B9B6903F00103BB60BB68484A7B6A7C
:10231C009B08023352F82330FB607B6A03F0030303
:10232C009B000F2202FA03F3DB43FA681340FB60B5
:10233C007B68404A934213D07B683F4A93420DD04E
:10234C007B683E4A934207D07B683D4A934201D159
:10235C00032306E0042304E0022302E0012300E04F
:10236C0000237A6A02F0030292009340FA68134346
:10237C00FB602F497B6A9B080233FA6841F82320E3
:10238C003B685B6803F48013002B06D02D4B9A68D6
:10239C002C49BB6913438B6006E02A4B9A68BB69D6
:1023AC00DB43284913408B603B685B6803F40013E4
:1023BC00002B06D0234BDA682249BB691343CB6050
:1023CC0006E0204BDA68BB69DB431E491340CB6047
:1023DC003B685B6803F40033002B06D0194B5A683A
:1023EC001849BB6913434B6006E0164B5A68BB692E
:1023FC00DB43144913404B603B685B6803F4803348
:10240C00002B21D00F4B1A680E49BB6913430B608C
:10241C0021E000BF0000321000003110000022103B
:10242C0000002110000012100000111000100240DA
:10243C000000014000080140000C01400010014068
:10244C0000140140000401400B4B1A68BB69DB43CC
:10245C00094913400B607B6A01337B623B681A6845
:10246C007B6A22FA03F3002B7FF48EAE00BF00BF11
:10247C002C37BD4680BC70470004014080B485B049
:10248C0000AF78600B467B807B689A687B88134032
:10249C00002B02D00123FB7301E00023FB73FB7BB9
:1024AC0018461437BD4680BC704780B483B000AF6B
:1024BC0078600B467B8013467B707B78002B03D0B7
:1024CC007A887B681A6103E07B881A047B681A613E
:1024DC0000BF0C37BD4680BC704780B485B000AFE0
:1024EC0078600B467B807B68DB68FB607A88FB68D6
:1024FC0013401A04FB68D9437B880B401A437B6852
:10250C001A6100BF1437BD4680BC704780B584B0DB
:10251C0000AF78607B68002B01D101232BE17B6835
:10252C0093F83D30DBB2002B06D17B68002283F898
:10253C003C207868FEF722FC7B68242283F83D203F
:10254C007B681B681A687B681B6822F001021A60A2
:10255C007B681B681A687B681B6842F400421A602F
:10256C007B681B681A687B681B6822F400421A603F
:10257C0003F08AFAF8607B685B68814A934207D85B
:10258C00FB68804A934294BF01230023DBB206E030
:10259C00FB687D4A934294BF01230023DBB2002BDE
:1025AC0001D00123E7E0FB68784AA2FB03239B0CD4
:1025BC00BB607B681B685B6823F03F017B681B6812
:1025CC00BA680A435A607B681B681B6A23F03F0198
:1025DC007B685B686A4A934202D8BB68013309E0A6
:1025EC00BB684FF4967202FB03F3694AA2FB032308
:1025FC009B0901337A6812680B4313627B681B6872
:10260C00DB6923F44F4222F0FF027B685B685C4974
:10261C008B4219D8FB68591E7B685B685B00B1FB69
:10262C00F3F3591C40F6FC730B40002B0AD0FB68EB
:10263C00591E7B685B685B00B1FBF3F30133C3F39A
:10264C000B0351E004234FE07B689B68002B11D1F6
:10265C00FB68581E7B6859680B465B000B44B0FB4B
:10266C00F3F30133C3F30B03002B0CBF0123002343
:10267C00DBB212E0FB68581E7B6859680B469B0066
:10268C000B4499000B44B0FBF3F30133C3F30B037E
:10269C00002B0CBF01230023DBB2002B01D0012344
:1026AC0022E07B689B68002B0ED1FB68581E7B6870
:1026BC0059680B465B000B44B0FBF3F30133C3F3D7
:1026CC000B0343F400430FE0FB68581E7B6859680A
:1026DC000B469B000B4499000B44B0FBF3F3013306
:1026EC00C3F30B0343F44043796809681343CB618C
:1026FC007B681B681B6823F0C0017B68DA697B6808
:10270C001B6A1A437B681B680A431A607B681B6848
:10271C009B6823F4034323F0FF037A6811697A68FA
:10272C00D26811437A6812680B4393607B681B680C
:10273C00DB6823F0FF017B685A697B689B691A434D
:10274C007B681B680A43DA607B681B681A687B68C5
:10275C001B6842F001021A607B6800221A647B68D5
:10276C00202283F83D207B6800221A637B680022BC
:10277C0083F83E20002318461037BD4680BD00BFAD
:10278C00A08601007F841E00FF083D0083DE1B43F2
:10279C00D34D621080B588B002AFF8600846114680
:1027AC001A4603467B810B463B811346FB80FEF7A2
:1027BC004DFF7861FB6893F83D30DBB2202B40F085
:1027CC00D9807B690093192301226D49F86800F0C8
:1027DC00FBFD0346002B01D00223CCE0FB6893F8F1
:1027EC003C30012B01D10223C5E0FB68012283F8A8
:1027FC003C20FB681B681B6803F00103012B07D00E
:10280C00FB681B681A68FB681B6842F001021A60BF
:10281C00FB681B681A68FB681B6822F400621A606C
:10282C00FB68212283F83D20FB68402283F83E2080
:10283C00FB6800221A64FB683A6A5A62FB68BA8C1D
:10284C005A85FB685B8D9AB2FB681A85FB684D4A0A
:10285C00DA62F8883A8979897B690193BB6A0093BB
:10286C000346F86800F032FC0346002B52D00123DB
:10287C0081E07A69B96AF86800F0C0FE0346002B63
:10288C000DD0FB681B6C042B07D1FB681B681A6806
:10289C00FB681B6842F400721A6001236BE0FB6852
:1028AC005B6A1A78FB681B681A61FB685B6A5A1CC6
:1028BC00FB685A62FB681B8D013B9AB2FB681A8558
:1028CC00FB685B8D9BB2013B9AB2FB685A85FB6837
:1028DC001B685B6903F00403042B1BD1FB681B8D85
:1028EC00002B17D0FB685B6A1A78FB681B681A61AF
:1028FC00FB685B6A5A1CFB685A62FB681B8D013BC8
:10290C009AB2FB681A85FB685B8D9BB2013B9AB24D
:10291C00FB685A85FB681B8D002BAAD17A69B96AB2
:10292C00F86800F0B3FE0346002B0DD0FB681B6C5F
:10293C00042B07D1FB681B681A68FB681B6842F400
:10294C0000721A60012316E0FB681B681A68FB68AA
:10295C001B6842F400721A60FB68202283F83D2049
:10296C00FB68002283F83E20FB68002283F83C20A1
:10297C00002300E0022318461837BD4680BD00BF77
:10298C00020010000000FFFF80B58CB002AFF860B1
:10299C00084611461A4603467B810B463B8113467B
:1029AC00FB8000233B62FEF751FE7862FB6893F8D4
:1029BC003D30DBB2202B40F050827B6A0093192310
:1029CC0001228249F86800F0FFFC0346002B01D07D
:1029DC00022343E2FB6893F83C30012B01D1022324
:1029EC003CE2FB68012283F83C20FB681B681B68F7
:1029FC0003F00103012B07D0FB681B681A68FB6806
:102A0C001B6842F001021A60FB681B681A68FB68BD
:102A1C001B6822F400621A60FB68222283F83D20B6
:102A2C00FB68402283F83E20FB6800221A64FB6896
:102A3C003A6B5A62FB68BA8E5A85FB685B8D9AB208
:102A4C00FB681A85FB68624ADA62F8883A897989E8
:102A5C007B6A0193BB6B00930346F86800F0CCFBD8
:102A6C000346002B01D00123F8E1FB681B8D002BE2
:102A7C0013D10023FB61FB681B685B69FB61FB687E
:102A8C001B689B69FB61FB69FB681B681A68FB6828
:102A9C001B6842F400721A60CCE1FB681B8D012BA1
:102AAC001ED1FB681B681A68FB681B6822F48062E5
:102ABC001A6072B600BF0023BB61FB681B685B69C0
:102ACC00BB61FB681B689B69BB61BB69FB681B68CE
:102ADC001A68FB681B6842F400721A6062B635E033
:102AEC00FB681B8D022B1ED1FB681B681A68FB68E8
:102AFC001B6842F400621A6072B600BF00237B614F
:102B0C00FB681B685B697B61FB681B689B697B616D
:102B1C007B69FB681B681A68FB681B6822F480627F
:102B2C001A6062B612E0FB681B681A68FB681B68C7
:102B3C0042F480621A6000233B61FB681B685B698E
:102B4C003B61FB681B689B693B613B6972E1FB68FD
:102B5C001B8D032B00F21F81FB681B8D012B23D1D6
:102B6C007A6AB96BF86800F0D9FD0346002B01D0E6
:102B7C00012373E1FB681B681A69FB685B6AD2B2BC
:102B8C001A70FB685B6A5A1CFB685A62FB681B8DE7
:102B9C00013B9AB2FB681A85FB685B8D9BB2013BCB
:102BAC009AB2FB685A8545E1FB681B8D022B52D10A
:102BBC007B6A0093BB6B00220649F86800F004FCAA
:102BCC000346002B08D0012348E100BF020010008F
:102BDC000000FFFF0400010072B600BFFB681B6819
:102BEC001A68FB681B6842F400721A60FB681B6869
:102BFC001A69FB685B6AD2B21A70FB685B6A5A1C72
:102C0C00FB685A62FB681B8D013B9AB2FB681A8504
:102C1C00FB685B8D9BB2013B9AB2FB685A8562B62E
:102C2C0000BFFB681B681A69FB685B6AD2B21A703A
:102C3C00FB685B6A5A1CFB685A62FB681B8D013B84
:102C4C009AB2FB681A85FB685B8D9BB2013B9AB20A
:102C5C00FB685A85EEE07B6A0093BB6B00228149CE
:102C6C00F86800F0B1FB0346002B01D00123F5E01E
:102C7C00FB681B681A68FB681B6822F480621A6088
:102C8C0072B600BFFB681B681A69FB685B6AD2B23C
:102C9C001A70FB685B6A5A1CFB685A62FB681B8DD6
:102CAC00013B9AB2FB681A85FB685B8D9BB2013BBA
:102CBC009AB2FB685A856C4B1B68DB086B4AA2FB0B
:102CCC0003231A0A13469B001344DA00D31A3B62FF
:102CDC003B6A013B3B623B6A002B18D1FB6800222C
:102CEC001A63FB68202283F83D20FB68002283F8DE
:102CFC003E20FB681B6C43F02002FB681A6462B632
:102D0C0000BFFB68002283F83C200123A6E0FB688F
:102D1C001B685B6903F00403042BD9D1FB681B68A7
:102D2C001A68FB681B6842F400721A60FB681B6827
:102D3C001A69FB685B6AD2B21A70FB685B6A5A1C30
:102D4C00FB685A62FB681B8D013B9AB2FB681A85C3
:102D5C00FB685B8D9BB2013B9AB2FB685A8562B6ED
:102D6C0000BFFB681B681A69FB685B6AD2B21A70F9
:102D7C00FB685B6A5A1CFB685A62FB681B8D013B43
:102D8C009AB2FB681A85FB685B8D9BB2013B9AB2C9
:102D9C00FB685A854EE07A6AB96BF86800F0BEFCA5
:102DAC000346002B01D0012358E0FB681B681A690D
:102DBC00FB685B6AD2B21A70FB685B6A5A1CFB68D0
:102DCC005A62FB681B8D013B9AB2FB681A85FB6843
:102DDC005B8D9BB2013B9AB2FB685A85FB681B6802
:102DEC005B6903F00403042B24D1FB681B8D032BBC
:102DFC0007D1FB681B681A68FB681B6822F48062A9
:102E0C001A60FB681B681A69FB685B6AD2B21A709D
:102E1C00FB685B6A5A1CFB685A62FB681B8D013BA2
:102E2C009AB2FB681A85FB685B8D9BB2013B9AB228
:102E3C00FB685A85FB681B8D002B7FF488AEFB6802
:102E4C00202283F83D20FB68002283F83E20FB689B
:102E5C00002283F83C20002300E002231846283788
:102E6C00BD4680BD040001000000002089B5F814A7
:102E7C0080B58AB002AFF8607A603B600B467B810C
:102E8C00FEF7E4FBF8610023BB61FB6893F83D306F
:102E9C00DBB2202B40F01181FB6900931923012236
:102EAC008849F86800F090FA0346002B01D0022301
:102EBC0004E1FB6893F83C30012B01D10223FDE0C7
:102ECC00FB68012283F83C20FB681B681B6803F03D
:102EDC000103012B07D0FB681B681A68FB681B6891
:102EEC0042F001021A60FB681B681A68FB681B68D9
:102EFC0022F400621A60FB68242283F83D20FB68F0
:102F0C0000221A64FB68704ADA62FB681B681A6854
:102F1C00FB681B6842F480721A60FB6900933B6883
:102F2C0000224FF00111F86800F04EFA0346002B16
:102F3C000DD0FB681B681B6803F48073B3F5807FAE
:102F4C0003D1FB684FF400721A640323B6E07B894B
:102F5C00DBB21A46FB681B6802F0FE021A61FEF730
:102F6C0075FBF861FB681B685B6903F00203022BBD
:102F7C000CBF01230023DBB2FB75FB681B685B698C
:102F8C0003F48063B3F5806F0CBF01230023DBB225
:102F9C00BB7525E0FEF75AFB0246FB69D31A3A686B
:102FAC009A4202D33B68002B03D1FB68A02283F822
:102FBC003D20FB681B685B6903F00203022B0CBF0E
:102FCC0001230023DBB2FB75FB681B685B6903F410
:102FDC008063B3F5806F0CBF01230023DBB2BB759C
:102FEC00FB6893F83D30DBB2A02B05D0FB7D002BAA
:102FFC0002D1BB7D002BCDD0FB68202283F83D2075
:10300C00FB681B685B6903F00203022B29D1FB6888
:10301C001B681A68FB681B6842F400721A60002374
:10302C003B61FB681B685B693B61FB681B689B69C8
:10303C003B613B69FB690093192301222149F86824
:10304C0000F0C2F90346002B01D0012336E0FB68E7
:10305C00202283F83D20FB68002283F83C200023CB
:10306C002CE0FB681B681A68FB681B6842F4007252
:10307C001A60FB681B686FF480625A61FB690093ED
:10308C00192301220F49F86800F09EF90346002B22
:10309C0001D0012312E0BB690133BB61BA697B68C3
:1030AC009A42FFF432AFFB68202283F83D20FB6884
:1030BC00002283F83C20012300E00223184620372D
:1030CC00BD4680BD020010000000FFFF80B588B037
:1030DC0002AFF860084611461A4603467B810B4640
:1030EC003B811346FB80FB681B681A68FB681B68F6
:1030FC0042F480721A607B6A00933B6A00224FF0A4
:10310C000111F86800F060F90346002B0DD0FB6844
:10311C001B681B6803F48073B3F5807F03D1FB68D5
:10312C004FF400721A6403235FE07B89DBB21A460A
:10313C00FB681B6802F0FE021A617B6A3A6A2D4931
:10314C00F86800F0BBF90346002B01D001234CE0DA
:10315C0000237B61FB681B685B697B61FB681B68F8
:10316C009B697B617B697A6A396AF86800F046FA78
:10317C000346002B0DD0FB681B6C042B07D1FB689E
:10318C001B681A68FB681B6842F400721A60012302
:10319C002BE0FB88012B05D13B89DAB2FB681B685D
:1031AC001A6121E03B891B0A9BB2DAB2FB681B68EF
:1031BC001A617A6A396AF86800F020FA0346002B23
:1031CC000DD0FB681B6C042B07D1FB681B681A68BD
:1031DC00FB681B6842F400721A60012305E03B890E
:1031EC00DAB2FB681B681A61002318461837BD4613
:1031FC0080BD00BF0200010080B588B002AFF8604E
:10320C00084611461A4603467B810B463B81134602
:10321C00FB80FB681B681A68FB681B6842F48062C1
:10322C001A60FB681B681A68FB681B6842F48072A2
:10323C001A607B6A00933B6A00224FF00111F86818
:10324C0000F0C2F80346002B0DD0FB681B681B680E
:10325C0003F48073B3F5807F03D1FB684FF40072E5
:10326C001A640323AAE07B89DBB21A46FB681B684D
:10327C0002F0FE021A617B6A3A6A5249F86800F061
:10328C001DF90346002B01D0012397E000237B613D
:10329C00FB681B685B697B61FB681B689B697B61D6
:1032AC007B697A6A396AF86800F0A8F90346002B42
:1032BC000DD0FB681B6C042B07D1FB681B681A68CC
:1032CC00FB681B6842F400721A60012376E0FB88ED
:1032DC00012B05D13B89DAB2FB681B681A6121E02E
:1032EC003B891B0A9BB2DAB2FB681B681A617A6ACB
:1032FC00396AF86800F082F90346002B0DD0FB68A0
:10330C001B6C042B07D1FB681B681A68FB681B68D5
:10331C0042F400721A60012350E03B89DAB2FB6878
:10332C001B681A617A6A396AF86800F067F9034613
:10333C00002B0DD0FB681B6C042B07D1FB681B68A2
:10334C001A68FB681B6842F400721A60012335E0AE
:10335C00FB681B681A68FB681B6842F480721A6071
:10336C007B6A00933B6A00224FF00111F86800F071
:10337C002BF80346002B0DD0FB681B681B6803F46D
:10338C008073B3F5807F03D1FB684FF400721A642D
:10339C00032313E07B89DBB243F00103DAB2FB6851
:1033AC001B681A617B6A3A6A0649F86800F086F86D
:1033BC000346002B01D0012300E0002318461837E8
:1033CC00BD4680BD0200010080B584B000AFF8603E
:1033DC00B9603B601346FB7148E03B68B3F1FF3FBB
:1033EC0044D0FEF733F90246BB69D31A3A689A42C5
:1033FC0002D33B68002B39D1BB681B0CDBB2012B11
:10340C000DD1FB681B685B69DA43BB6813409BB248
:10341C00002B0CBF01230023DBB21A460CE0FB6827
:10342C001B689B69DA43BB6813409BB2002B0CBF33
:10343C0001230023DBB21A46FB799A4216D1FB68B2
:10344C0000221A63FB68202283F83D20FB680022CF
:10345C0083F83E20FB681B6C43F02002FB681A6467
:10346C00FB68002283F83C20012323E0BB681B0C83
:10347C00DBB2012B0DD1FB681B685B69DA43BB68BF
:10348C0013409BB2002B0CBF01230023DBB21A4666
:10349C000CE0FB681B689B69DA43BB6813409BB26A
:1034AC00002B0CBF01230023DBB21A46FB799A4296
:1034BC0093D0002318461037BD4680BD80B584B02C
:1034CC0000AFF860B9607A603B6071E0FB681B6824
:1034DC005B6903F48063B3F5806F23D1FB681B68D1
:1034EC001A68FB681B6842F400721A60FB681B6860
:1034FC006FF480625A61FB6800221A63FB68202219
:10350C0083F83D20FB68002283F83E20FB681B6C8F
:10351C0043F00402FB681A64FB68002283F83C2029
:10352C00012367E07B68B3F1FF3F41D0FEF78EF8D3
:10353C0002463B68D31A7A689A4202D37B68002B06
:10354C0036D1BB681B0CDBB2012B0CD1FB681B68A2
:10355C005B69DA43BB6813409BB2002B14BF012399
:10356C000023DBB20BE0FB681B689B69DA43BB688A
:10357C0013409BB2002B14BF01230023DBB2002BA2
:10358C0016D0FB6800221A63FB68202283F83D20CA
:10359C00FB68002283F83E20FB681B6C43F0200282
:1035AC00FB681A64FB68002283F83C20012321E0AD
:1035BC00BB681B0CDBB2012B0CD1FB681B685B6975
:1035CC00DA43BB6813409BB2002B14BF01230023CA
:1035DC00DBB20BE0FB681B689B69DA43BB681340EA
:1035EC009BB2002B14BF01230023DBB2002B7FF412
:1035FC006DAF002318461037BD4680BD80B584B032
:10360C0000AFF860B9607A6034E0F86800F0E3F875
:10361C000346002B01D0012334E0BB68B3F1FF3F1C
:10362C0028D0FEF713F802467B68D31ABA689A4280
:10363C0002D3BB68002B1DD1FB681B685B6903F0D0
:10364C008003802B16D0FB6800221A63FB682022B3
:10365C0083F83D20FB68002283F83E20FB681B6C3E
:10366C0043F02002FB681A64FB68002283F83C20BC
:10367C00012307E0FB681B685B6903F08003802B68
:10368C00C3D1002318461037BD4680BD80B584B029
:10369C0000AFF860B9607A6034E0F86800F09BF82D
:1036AC000346002B01D0012334E0BB68B3F1FF3F8C
:1036BC0028D0FDF7CBFF02467B68D31ABA689A4232
:1036CC0002D3BB68002B1DD1FB681B685B6903F040
:1036DC000403042B16D0FB6800221A63FB6820221B
:1036EC0083F83D20FB68002283F83E20FB681B6CAE
:1036FC0043F02002FB681A64FB68002283F83C202C
:10370C00012307E0FB681B685B6903F00403042BCF
:10371C00C3D1002318461037BD4680BD80B584B098
:10372C0000AFF860B9607A6049E0FB681B685B69C0
:10373C0003F01003102B19D1FB681B686FF01002FB
:10374C005A61FB6800221A63FB68202283F83D2033
:10375C00FB68002283F83E20FB681A6CFB681A6435
:10376C00FB68002283F83C20012330E0FDF76EFF5C
:10377C0002467B68D31ABA689A4202D3BB68002B04
:10378C001DD1FB681B685B6903F04003402B16D00E
:10379C00FB6800221A63FB68202283F83D20FB683B
:1037AC00002283F83E20FB681B6C43F02002FB6870
:1037BC001A64FB68002283F83C20012307E0FB68B5
:1037CC001B685B6903F04003402BAED10023184605
:1037DC001037BD4680BD80B483B000AF78607B6885
:1037EC001B685B6903F48063B3F5806F1BD17B6846
:1037FC001B686FF480625A617B6800221A637B68D5
:10380C00202283F83D207B68002283F83E207B68D1
:10381C001B6C43F004027B681A647B68002283F8FB
:10382C003C20012300E0002318460C37BD4680BC29
:10383C00704780B584B000AF78607B68002B01D1F5
:10384C000123E8E07B6893F89132DBB2002B06D1C0
:10385C007B68002283F89022786807F079FA7B68FD
:10386C00032283F891227B6800225A717B681B68C3
:10387C00184603F09EF97B6818687B6804330ECBFE
:10388C0003F074F90346002B05D07B68022283F801
:10389C0091220123BFE07B681B680021184603F0CE
:1038AC00A2F90346002B05D07B68022283F89122F3
:1038BC000123B0E00023FB733EE0FA7B79681346EA
:1038CC009B001344DB000B44113301221A70FA7B6A
:1038DC00796813469B001344DB000B441033FA7BCE
:1038EC001A70FA7B796813469B001344DB000B4477
:1038FC00133300221A70FA7B796813469B00134429
:10390C00DB000B44203300221A60FA7B79681346E3
:10391C009B001344DB000B44243300221A60FB7B16
:10392C0079685A1C13469B001344DB000B4400229D
:10393C001A60FB7B0133FB737B681B79FA7B9A4221
:10394C00BBD30023FB7344E0FA7B796813469B00DE
:10395C001344DB000B4403F2511300221A70FA7B60
:10396C00796813469B001344DB000B4403F5A873E2
:10397C00FA7B1A70FA7B796813469B001344DB00C0
:10398C000B4403F2531300221A70FA7B7968134626
:10399C009B001344DB000B4403F5B07300221A6048
:1039AC00FA7B796813469B001344DB000B4403F548
:1039BC00B27300221A60FA7B796813469B00134499
:1039CC00DB000B4403F5B47300221A60FB7B01335C
:1039DC00FB737B681B79FA7B9A42B5D37B681868BA
:1039EC007B6804330ECB03F00AF90346002B05D099
:1039FC007B68022283F8912201230CE07B68002271
:103A0C005A737B68012283F891227B681B681846E5
:103A1C0005F089FB002318461037BD4680BD80B5E4
:103A2C0082B000AF78607B6893F89032012B01D1A3
:103A3C00022316E07B68012283F890227B681B68C6
:103A4C00184603F0A0F80121786807F0F4FB7B68B6
:103A5C001B68184605F05DFB7B68002283F89022FA
:103A6C00002318460837BD4680BD80B588B000AF2E
:103A7C0078607B681B68184605F05FFBB861BB6912
:103A8C0003F40043002B03D0786800F01AFB19E113
:103A9C00BB6903F48063002B13D07B681B68B3F8FD
:103AAC0044309AB27B681B6822F4806292B2A3F80D
:103ABC004420786807F0C7F90021786800F005F910
:103ACC0000E1BB6903F48043002B0CD07B681B68BE
:103ADC00B3F844309AB27B681B6822F4804292B2ED
:103AEC00A3F84420EEE0BB6903F40053002B0CD088
:103AFC007B681B68B3F844309AB27B681B6822F46D
:103B0C00005292B2A3F84420DCE0BB6903F480536A
:103B1C00002B27D07B681B68B3F840309AB27B68C7
:103B2C001B6822F0040292B2A3F840207B681B6849
:103B3C00B3F840309AB27B681B6822F0080292B24C
:103B4C00A3F84020786807F0B7F97B681B68B3F8D6
:103B5C0044309AB27B681B6822F4805292B2A3F86C
:103B6C004420AFE0BB6903F40063002B00F08380BA
:103B7C000023FB7710E07B681B681A46FB7F9B00D9
:103B8C001A44FB7F128892B25B0020333B4423F82B
:103B9C00182CFB7F0133FB77FB7F072BEBD97B6862
:103BAC001B68B3F840309AB27B681B6842F0010284
:103BBC0092B2A3F840207B681B68B3F840309AB2ED
:103BCC007B681B6822F0010292B2A3F8402000BF70
:103BDC007B681B68B3F844309BB203F48063002B02
:103BEC00F6D07B681B68B3F844309AB27B681B68CC
:103BFC0022F4806292B2A3F844200023FB770FE0FA
:103C0C00FB7F7A6812681146FA7F92000A445B00C7
:103C1C0020333B4433F8183C1380FB7F0133FB7794
:103C2C00FB7F072BECD97B681B68B3F840309AB24A
:103C3C007B681B6842F0080292B2A3F840207B68B4
:103C4C001B68B3F844309AB27B681B6822F400629C
:103C5C0092B2A3F844207B681B68B3F840309AB248
:103C6C007B681B6842F0040292B2A3F8402078688B
:103C7C0007F008F926E0BB6903F40073002B0FD0A2
:103C8C007B681B68B3F844309AB27B681B6822F4DB
:103C9C00007292B2A3F84420786807F0C6F811E0DD
:103CAC00BB6903F48073002B0CD07B681B68B3F8E2
:103CBC0044309AB27B681B6822F4807292B2A3F8EB
:103CCC00442000BF2037BD4680BD80B582B000AF18
:103CDC0078600B46FB707B6893F89032012B01D116
:103CEC00022312E07B68012283F890227B68FA7829
:103CFC005A737B681B68FA781146184605F0F6F97A
:103D0C007B68002283F89022002318460837BD46B2
:103D1C0080BD80B584B000AF7860084611461A4665
:103D2C000346FB700B463B801346BB700023FB72B3
:103D3C0097F90330002B0EDAFB7803F007021346D9
:103D4C009B001344DB0010337A681344FB60FB6860
:103D5C0001225A700EE0FB7803F0070213469B0019
:103D6C001344DB0003F5A8737A681344FB60FB680B
:103D7C0000225A70FB7803F00703DAB2FB681A7062
:103D8C003A88FB681A61FB68BA78DA70BB78022B48
:103D9C0002D1FB6800221A717B6893F89032012BD8
:103DAC0001D102230EE07B68012283F890227B680C
:103DBC001B68F968184602F03FFF7B68002283F805
:103DCC009022FB7A18461037BD4680BD80B584B072
:103DDC0000AF78600B46FB7097F90330002B0EDABE
:103DEC00FB7803F0070213469B001344DB001033EF
:103DFC007A681344FB60FB6801225A700EE0FB7872
:103E0C0003F0070213469B001344DB0003F5A87371
:103E1C007A681344FB60FB6800225A70FB7803F04D
:103E2C000703DAB2FB681A707B6893F89032012BA7
:103E3C0001D102230EE07B68012283F890227B687B
:103E4C001B68F968184603F0B7FA7B68002283F800
:103E5C009022002318461037BD4680BD80B586B031
:103E6C0000AFF8607A603B600B46FB72FB7A03F0A4
:103E7C00070213469B001344DB0003F5A873FA6892
:103E8C0013447B617B697A685A617B693A689A61F1
:103E9C007B690022DA617B6900225A70FB7A03F09D
:103EAC000703DAB27B691A70FB681B6879691846DC
:103EBC0003F06EFC002318461837BD4680BD80B455
:103ECC0083B000AF78600B46FB70FB7803F0070201
:103EDC00796813469B001344DB000B4403F5B6735F
:103EEC001B6818460C37BD4680BC704780B586B041
:103EFC0000AFF8607A603B600B46FB72FB7A03F014
:103F0C00070213469B001344DB001033FA6813447A
:103F1C007B617B697A685A617B693A689A617B69D3
:103F2C00012283F824207B693A681A627B6900229B
:103F3C00DA617B6901225A70FB7A03F00703DAB26B
:103F4C007B691A70FB681B687969184603F020FCC2
:103F5C00002318461837BD4680BD80B584B000AF2D
:103F6C0078600B46FB70FB7803F007037A681279D4
:103F7C00934201D901234CE097F90330002B0EDA60
:103F8C00FB7803F0070213469B001344DB0010334D
:103F9C007A681344FB60FB6801225A700CE0FA78D3
:103FAC0013469B001344DB0003F5A8737A68134493
:103FBC00FB60FB6800225A70FB6801229A70FB7848
:103FCC0003F00703DAB2FB681A707B6893F890323F
:103FDC00012B01D102231CE07B68012283F8902283
:103FEC007B681B68F968184604F083FFFB7803F0C4
:103FFC000703002B08D17B681A687B6803F52673CE
:10400C001946104605F0A8F87B68002283F8902228
:10401C00002318461037BD4680BD80B584B000AF74
:10402C0078600B46FB70FB7803F00F037A6812790B
:10403C00934201D9012340E097F90330002B0EDAAB
:10404C00FB7803F0070213469B001344DB0010338C
:10405C007A681344FB60FB6801225A700EE0FB780F
:10406C0003F0070213469B001344DB0003F5A8730F
:10407C007A681344FB60FB6800225A70FB680022CC
:10408C009A70FB7803F00703DAB2FB681A707B684E
:10409C0093F89032012B01D102230EE07B680122B0
:1040AC0083F890227B681B68F968184604F071FF4E
:1040BC007B68002283F89022002318461037BD46F7
:1040CC0080BD80B596B000AF7860BBE37B681B68A1
:1040DC00B3F84430A7F84E30B7F84E30DBB203F0EB
:1040EC000F0387F84D3097F84D30002B40F0758159
:1040FC00B7F84E3003F01003002B4ED17B681B68D1
:10410C001B889BB223F4E14323F07003FB817B6893
:10411C001A68FB896FEA43436FEA53439BB21380DF
:10412C007B6810337B657B681B68B3F850309BB29F
:10413C001A467B6D1B78DB00134402335B007A68F4
:10414C001268134403F580631B88C3F309027B6D6B
:10415C00DA617B6D5A697B6DDB691A447B6D5A6140
:10416C000021786806F047FE7B685B7BDBB2002B96
:10417C0000F068837B6D9B69002B40F063837B6848
:10418C005B7BDBB263F07F03DAB27B681B68A3F85E
:10419C004C207B6800225A7354E37B6803F5A873A8
:1041AC007B657B681B681B88A7F84A30B7F84A30D8
:1041BC0003F40063002B34D07B681B68B3F85030D9
:1041CC009BB21A467B6D1B78DB00134406335B00F5
:1041DC007A681268134403F580631B88C3F30902E1
:1041EC007B6DDA617B6818687B6803F526717B6DE3
:1041FC00DA887B6DDB699BB204F0FEFF7B681B6881
:10420C001B889AB240F68F7313403B827B681B6805
:10421C003A8A42F0800292B21A80786806F0BEFDAB
:10422C0010E3B7F94A30002B80F20C837B681B68D3
:10423C001B889AB240F68F731340FB837B681B6814
:10424C00FA8B42F0800292B21A807B681B68B3F83A
:10425C0050309BB21A467B6D1B78DB00134406333F
:10426C005B007A681268134403F580631B88C3F300
:10427C0009027B6DDA617B6DDB69002B19D07B6DDC
:10428C005B69002B15D07B6818687B6D59697B6D59
:10429C00DA887B6DDB699BB204F0AEFF7B6D5A69EB
:1042AC007B6DDB691A447B6D5A610021786806F0DE
:1042BC0087FD7B681B681B88A7F84A30B7F84A3023
:1042CC0003F40063002B40F0BD82B7F84A3003F4CE
:1042DC004053B3F5405F00F0B5827B681B68BB614F
:1042EC007B681B68B3F850309BB21A46BB69134409
:1042FC00BB61BB6903F20C437B617B691B889BB27E
:10430C00C3F309039AB27B691A807B6D1B693E2B40
:10431C001DD97B6D1B695B097B647B6D1B6903F08D
:10432C001F03002B02D17B6C013B7B647B691B88D8
:10433C009AB27B6C9BB29B029BB213439BB26FEA0B
:10434C0043436FEA53439AB27B691A8026E07B6D34
:10435C001B69002B0AD17B691B889BB26FEA434314
:10436C006FEA53439AB27B691A8017E07B6D1B6925
:10437C005B087B647B6D1B6903F00103002B02D08F
:10438C007B6C01337B647B691B889AB27B6C9BB220
:10439C009B029BB213439AB27B691A807B681B68A1
:1043AC001B889BB223F4804323F070037B827B8AAF
:1043BC0083F480537B827B8A83F400537B827B68FB
:1043CC001A687B8A43F07F4343F47F0343F4004332
:1043DC0043F080039BB2138034E27B681B681A465F
:1043EC0097F84D309B0013441B88A7F84A30B7F957
:1043FC004A30002B80F2FC807B681B681A4697F8C9
:10440C004D309B0013441B889AB240F68F731340B7
:10441C00A7F848307B681B681A4697F84D309B000C
:10442C001344B7F8482042F0800292B21A8097F8F1
:10443C004D2013469B001344DB0003F5A8737A68E8
:10444C0013447B657B6D1B7B002B25D17B681B6824
:10445C00B3F850309BB21A467B6D1B78DB001344CB
:10446C0006335B007A681268134403F580631B887B
:10447C00C3F30903A7F85030B7F85030002B00F005
:10448C0092807B6818687B6D59697B6DDA88B7F808
:10449C00503004F0B1FE86E07B6DDB78022B0AD144
:1044AC00B7F84A301A46796D786800F0D9F90346A6
:1044BC00A7F8503077E07B681B681A467B6D1B7839
:1044CC009B0013441B889BB223F4E04323F070033E
:1044DC00A7F852307B681B681A467B6D1B789B00D3
:1044EC001A44B7F8523043F07F4343F47F0343F44C
:1044FC00004343F0C0039BB213807B681B681A46D1
:10450C007B6D1B789B0013441B889BB203F4804388
:10451C00002B24D07B681B68B3F850309BB21A4632
:10452C007B6D1B78DB00134402335B007A681268E6
:10453C00134403F580631B88C3F30903A7F85030B9
:10454C00B7F85030002B2ED07B6818687B6D5969FA
:10455C007B6D1A89B7F8503004F04EFE23E07B686F
:10456C001B68B3F850309BB21A467B6D1B78DB008E
:10457C00134406335B007A681268134403F58063B6
:10458C001B88C3F30903A7F85030B7F85030002B41
:10459C0009D07B6818687B6D59697B6D5A89B7F8AF
:1045AC00503004F029FE7B6DDA69B7F850301A44AC
:1045BC007B6DDA617B6D5A69B7F850301A447B6DAC
:1045CC005A617B6D9B69002B05D0B7F850207B6D31
:1045DC001B699A4206D27B6D1B781946786806F0E7
:1045EC00EFFB05E07B681B68796D184603F0D0F88B
:1045FC00B7F84A3003F08003002B00F0238197F8C2
:10460C004D2013469B001344DB0010337A6813448F
:10461C007B657B681B681A4697F84D309B001344EA
:10462C001B889BB223F4E14323F07003A7F84230BC
:10463C007B681B681A4697F84D309B001A44B7F8F4
:10464C0042306FEA43436FEA53439BB213807B6D56
:10465C00DB78012B40F0A2807B6D00229A617B6D90
:10466C001B7B002B00F09380B7F84A3003F040031B
:10467C00002B46D07B6D5B78002B26D17B681B68AA
:10468C007B627B681B68B3F850309BB21A467B6A1E
:10469C0013447B627B6D1B781A017B6A134403F213
:1046AC0004433B623B6A1B889BB2C3F309039AB277
:1046BC003B6A1A803B6A1B889BB26FEA43436FEAE2
:1046CC0053439AB23B6A1A8061E07B6D5B78012B95
:1046DC005DD17B681B68FB627B681B68B3F850304C
:1046EC009BB21A46FB6A1344FB627B6D1B781A0162
:1046FC00FB6A134403F20443BB62BB6A00221A80B8
:10470C0045E07B681B68FB637B6D5B78002B26D1D7
:10471C007B681B687B637B681B68B3F850309BB26B
:10472C001A467B6B13447B637B6D1B781A017B6B86
:10473C00134403F20C433B633B6B1B889BB2C3F3E8
:10474C0009039AB23B6B1A803B6B1B889BB26FEAD6
:10475C0043436FEA53439AB23B6B1A8017E07B6D6D
:10476C005B78012B13D17B681B68B3F850309BB27C
:10477C001A46FB6B1344FB637B6D1B781A01FB6BB6
:10478C00134403F20C43BB63BB6B00221A807B6D9A
:10479C001B781946786806F02EFB53E0B7F84A30C0
:1047AC0003F48073002B46D17B681B68B3F8503040
:1047BC009BB21A467B6D1B78DB00134402335B0003
:1047CC007A681268134403F580631B88C3F30903EA
:1047DC00A7F840307B6D9A69B7F840309A4207D9F8
:1047EC007B6D9A69B7F84030D21A7B6D9A6102E002
:1047FC007B6D00229A617B6D9B69002B06D17B6DD2
:10480C001B781946786806F0F6FA1BE07B6D5A693E
:10481C00B7F840301A447B6D5A617B6DDA69B7F892
:10482C0040301A447B6DDA617B681B68796D1846E1
:10483C0002F0AEFF06E0B7F84A301A46796D786898
:10484C0000F01BF97B681B68B3F844309BB21BB2B9
:10485C00002BFFF63BAC002318465837BD4680BDF5
:10486C0080B588B000AFF860B9601346FB80FB8858
:10487C0003F48043002B7ED0FB681B68B3F85030E8
:10488C009BB21A46BB681B78DB00134402335B00F7
:10489C00FA681268134403F580631B88C3F3090399
:1048AC007B83BB689A697B8B9A4206D3BB689A69F7
:1048BC007B8BD21ABB689A6102E0BB6800229A61BA
:1048CC00BB689B69002B23D1FB681B681A46BB682D
:1048DC001B789B0013441B889BB223F4804323F06A
:1048EC0070033B833B8B83F400533B83FB681B6857
:1048FC001A46BB681B789B001A443B8B43F07F43E2
:10490C0043F47F0343F4004343F080039BB21380D2
:10491C00FB8803F04003002B1FD0FB681B681A4672
:10492C00BB681B789B0013441B889BB223F4E043A9
:10493C0023F07003FB82FB681B681A46BB681B786C
:10494C009B001A44FB8A43F07F4343F47F0343F4F8
:10495C00004343F0C0039BB213807B8B002B00F011
:10496C008780FB681868BB685969BB681A897B8BA0
:10497C0004F042FC7CE0FB681B68B3F850309BB23F
:10498C001A46BB681B78DB00134406335B00FA68DD
:10499C001268134403F580631B88C3F309037B83FC
:1049AC00BB689A697B8B9A4206D3BB689A697B8BEE
:1049BC00D21ABB689A6102E0BB6800229A61BB689C
:1049CC009B69002B23D1FB681B681A46BB681B78BC
:1049DC009B0013441B889BB223F4804323F0700389
:1049EC00FB83FB8B83F40053FB83FB681B681A4629
:1049FC00BB681B789B001A44FB8B43F07F4343F44A
:104A0C007F0343F4004343F080039BB21380FB8885
:104A1C0003F04003002B1FD1FB681B681A46BB68D0
:104A2C001B789B0013441B889BB223F4E04323F0B8
:104A3C007003BB83FB681B681A46BB681B789B0022
:104A4C001A44BB8B43F07F4343F47F0343F400438E
:104A5C0043F0C0039BB213807B8B002B08D0FB6808
:104A6C001868BB685969BB685A897B8B04F0C4FB16
:104A7C007B8B18462037BD4680BD80B5A4B000AFF7
:104A8C00F860B9601346FB80FB8803F04003002BF1
:104A9C0000F0DD81FB681B68B3F850309BB21A46FE
:104AAC00BB681B78DB00134402335B00FA681268A6
:104ABC00134403F580631B88C3F30903A7F88630FE
:104ACC00BB689A69B7F886309A4207D9BB689A696D
:104ADC00B7F88630D21ABB689A6102E0BB68002234
:104AEC009A61BB689B69002B40F0B980BB685B780E
:104AFC00002B26D1FB681B68FB62FB681B68B3F8B4
:104B0C0050309BB21A46FB6A1344FB62BB681B789D
:104B1C001A01FB6A134403F20443BB62BB6A1B8891
:104B2C009BB2C3F309039AB2BB6A1A80BB6A1B8897
:104B3C009BB26FEA43436FEA53439AB2BB6A1A8043
:104B4C001AE0BB685B78012B16D1FB681B687B6392
:104B5C00FB681B68B3F850309BB21A467B6B13444E
:104B6C007B63BB681B781A017B6B134403F2044311
:104B7C003B633B6B00221A80FB681B687B62BB6843
:104B8C005B78002B26D1FB681B68FB61FB681B68FC
:104B9C00B3F850309BB21A46FB691344FB61BB68F7
:104BAC001B781A01FB69134403F20C43BB61BB690C
:104BBC001B889BB2C3F309039AB2BB691A80BB6909
:104BCC001B889BB26FEA43436FEA53439AB2BB69AB
:104BDC001A8017E0BB685B78012B13D1FB681B684C
:104BEC00B3F850309BB21A467B6A13447B62BB68A5
:104BFC001B781A017B6A134403F20C433B623B6A39
:104C0C0000221A80BB681B781946F86806F0F3F886
:104C1C00FB8803F48043002B00F0FC82FB681B68CC
:104C2C001A46BB681B789B0013441B889BB223F469
:104C3C00E04323F07003FB82FB681B681A46BB68D9
:104C4C001B789B001A44FB8A43F07F4343F47F0399
:104C5C0043F4404343F080039BB21380DAE2FB88B9
:104C6C0003F48043002B21D0FB681B681A46BB68F9
:104C7C001B789B0013441B889BB223F4E04323F066
:104C8C007003A7F88A30FB681B681A46BB681B7850
:104C9C009B001A44B7F88A3043F07F4343F47F03F8
:104CAC0043F4404343F080039BB21380BB6893F8FA
:104CBC002430012B40F0AE82BB685A69B7F88630BD
:104CCC001A44BB685A61BB68DA69B7F886301A4473
:104CDC00BB68DA61BB681A6ABB681B699A420BD362
:104CEC00BB681B69C7F88C30BB681A6AD7F88C3064
:104CFC00D21ABB681A6217E0BB681B6A002B08D17A
:104D0C00B7F88630C7F88C30BB68002283F82420B3
:104D1C000AE0BB68002283F82420BB681B6AC7F832
:104D2C008C30BB6800221A62BB685B78002B65D1A3
:104D3C00FB681B68FB63FB681B68B3F850309BB2C5
:104D4C001A46FB6B1344FB63BB681B781A01FB6BA5
:104D5C00134403F20443BB63BB6B1B889BB2C3F3CA
:104D6C0009039AB2BB6B1A80D7F88C303E2B1DD935
:104D7C00D7F88C305B09BB64D7F88C3003F01F0379
:104D8C00002B02D1BB6C013BBB64BB6B1B889AB282
:104D9C00BB6C9BB29B029BB213439BB26FEA434327
:104DAC006FEA53439AB2BB6B1A8044E0D7F88C304D
:104DBC00002B0AD1BB6B1B889BB26FEA43436FEA93
:104DCC0053439AB2BB6B1A8035E0D7F88C305B0832
:104DDC00BB64D7F88C3003F00103002B02D0BB6C02
:104DEC000133BB64BB6B1B889AB2BB6C9BB29B023E
:104DFC009BB213439AB2BB6B1A801CE0BB685B7806
:104E0C00012B18D1FB681B687B64FB681B68B3F82B
:104E1C0050309BB21A467B6C13447B64BB681B7886
:104E2C001A017B6C134403F204433B64D7F88C30B7
:104E3C009AB23B6C1A80FB681868BB685969BB68EE
:104E4C001A89D7F88C309BB204F091F9E2E1FB6837
:104E5C001B68B3F850309BB21A46BB681B78DB005A
:104E6C00134406335B00FA681268134403F580633D
:104E7C001B88C3F30903A7F88630BB689A69B7F897
:104E8C0086309A4207D3BB689A69B7F88630D21A33
:104E9C00BB689A6102E0BB6800229A61BB689B699F
:104EAC00002B40F0C080BB685B78002B26D1FB68E0
:104EBC001B68FB67FB681B68B3F850309BB21A4643
:104ECC00FB6F1344FB67BB681B781A01FB6F134421
:104EDC0003F20443BB67BB6F1B889BB2C3F309038C
:104EEC009AB2BB6F1A80BB6F1B889BB26FEA4343AD
:104EFC006FEA53439AB2BB6F1A801AE0BB685B78B7
:104F0C00012B16D1FB681B687B66FB681B68B3F82A
:104F1C0050309BB21A467B6E13447B66BB681B7881
:104F2C001A017B6E134403F204433B663B6E002272
:104F3C001A80FB681B687B67BB685B78002B2BD1E6
:104F4C00FB681B68FB66FB681B68B3F850309BB2B0
:104F5C001A46FB6E1344FB66BB681B781A01FB6E8A
:104F6C00134403F20C43C7F88030D7F880301B8809
:104F7C009BB2C3F309039AB2D7F880301A80D7F8E2
:104F8C0080301B889BB26FEA43436FEA53439AB25B
:104F9C00D7F880301A8017E0BB685B78012B13D1EF
:104FAC00FB681B68B3F850309BB21A467B6F1344F6
:104FBC007B67BB681B781A017B6F134403F20C43AD
:104FCC003B673B6F00221A80BB681B781946F86858
:104FDC0005F011FFFB8803F48043002B40F01A818D
:104FEC00FB681B681A46BB681B789B0013441B8824
:104FFC009BB223F4E04323F07003A7F88830FB68DE
:10500C001B681A46BB681B789B001A44B7F888309B
:10501C0043F07F4343F47F0343F4404343F0800366
:10502C009BB21380F6E0FB8803F48043002B21D164
:10503C00FB681B681A46BB681B789B0013441B88D3
:10504C009BB223F4E04323F07003A7F84E30FB68C7
:10505C001B681A46BB681B789B001A44B7F84E3085
:10506C0043F07F4343F47F0343F4404343F0800316
:10507C009BB21380BB6893F82430012B40F0CA809C
:10508C00BB685A69B7F886301A44BB685A61BB686A
:10509C00DA69B7F886301A44BB68DA61BB681A6AF9
:1050AC00BB681B699A420BD3BB681B69C7F88C3071
:1050BC00BB681A6AD7F88C30D21ABB681A6217E030
:1050CC00BB681B6A002B08D1B7F88630C7F88C3048
:1050DC00BB68002283F824200AE0BB681B6AC7F86F
:1050EC008C30BB6800221A62BB68002283F8242033
:1050FC00FB681B687B65BB685B78002B65D1FB6824
:10510C001B68FB65FB681B68B3F850309BB21A46F2
:10511C00FB6D1344FB65BB681B781A01FB6D1344D4
:10512C0003F20C43BB65BB6D1B889BB2C3F3090335
:10513C009AB2BB6D1A80D7F88C303E2B1DD9D7F89C
:10514C008C305B09BB66D7F88C3003F01F03002B47
:10515C0002D1BB6E013BBB66BB6D1B889AB2BB6EAA
:10516C009BB29B029BB213439BB26FEA43436FEA21
:10517C0053439AB2BB6D1A8041E0D7F88C30002BA8
:10518C000AD1BB6D1B889BB26FEA43436FEA534352
:10519C009AB2BB6D1A8032E0D7F88C305B08BB66D4
:1051AC00D7F88C3003F00103002B02D0BB6E013317
:1051BC00BB66BB6D1B889AB2BB6E9BB29B029BB24B
:1051CC0013439AB2BB6D1A8019E0BB685B78012B54
:1051DC0015D1FB681B68B3F850309BB21A467B6D37
:1051EC0013447B65BB681B781A017B6D134403F277
:1051FC000C433B65D7F88C309AB23B6D1A80FB6838
:10520C001868BB685969BB685A89D7F88C309BB24F
:10521C0003F0ADFFFB681B681A46BB681B789B004C
:10522C0013441B889BB223F4E04323F04003BB825E
:10523C00BB8A83F01003BB82BB8A83F02003BB8242
:10524C00FB681B681A46BB681B789B001A44BB8A18
:10525C0043F07F4343F47F0343F4004343F0800364
:10526C009BB21380002318469037BD4680BD80B496
:10527C0087B000AFF8607B600B467B8113463B81A7
:10528C007B8903F080039BB2002B0BD07B8903F04E
:10529C00070213469B001344DB001033FA681344D7
:1052AC007B6109E07A8913469B001344DB0003F50C
:1052BC00A873FA6813447B613B89002B07D17B6987
:1052CC0000221A737B689AB27B69DA800BE07B69E7
:1052DC0001221A737B689AB27B691A817B681B0C5A
:1052EC009AB27B695A81002318461C37BD4680BC94
:1052FC007047000080B586B000AF78607B68002BEB
:10530C0001D1012372E27B681B6803F00103002BBF
:10531C0000F08780924B5B6803F00C03042B0CD0DD
:10532C008F4B5B6803F00C03082B12D18C4B5B6822
:10533C0003F48033B3F5803F0BD1894B1B6803F426
:10534C000033002B6CD07B685B68002B68D1012389
:10535C004CE27B685B68B3F5803F06D1804B1B68E1
:10536C007F4A43F4803313602EE07B685B68002B2C
:10537C000CD17B4B1B687A4A23F480331360784B37
:10538C001B68774A23F4802313601DE07B685B68FD
:10539C00B3F5A02F0CD1724B1B68714A43F48023D8
:1053AC0013606F4B1B686E4A43F4803313600BE041
:1053BC006B4B1B686A4A23F480331360684B1B6881
:1053CC00674A23F4802313607B685B68002B13D03F
:1053DC00FCF73CF9386108E0FCF738F902463B6908
:1053EC00D31A642B01D9032300E25D4B1B6803F431
:1053FC000033002BF0D014E0FCF728F9386108E0FA
:10540C00FCF724F902463B69D31A642B01D9032318
:10541C00ECE1534B1B6803F40033002BF0D100E09C
:10542C0000BF7B681B6803F00203002B63D04C4B5E
:10543C005B6803F00C03002B0BD0494B5B6803F04B
:10544C000C03082B1CD1464B5B6803F48033002BF8
:10545C0016D1434B1B6803F00203002B05D07B686D
:10546C001B69012B01D00123C0E13D4B1B6823F0CC
:10547C00F8027B685B69DB00394913430B603AE047
:10548C007B681B69002B20D0364B01221A60FCF77D
:10549C00DDF8386108E0FCF7D9F802463B69D31A0D
:1054AC00022B01D90323A1E12D4B1B6803F002034E
:1054BC00002BF0D02A4B1B6823F0F8027B685B6949
:1054CC00DB00274913430B6015E0264B00221A60C2
:1054DC00FCF7BCF8386108E0FCF7B8F802463B6909
:1054EC00D31A022B01D9032380E11D4B1B6803F057
:1054FC000203002BF0D17B681B6803F00803002B20
:10550C003AD07B689B69002B19D0174B01221A608B
:10551C00FCF79CF8386108E0FCF798F802463B6908
:10552C00D31A022B01D9032360E10D4B5B6A03F004
:10553C000203002BF0D0012000F0CEFA1CE00A4B45
:10554C0000221A60FCF782F838610FE0FCF77EF855
:10555C0002463B69D31A022B08D9032346E100BF4C
:10556C00001002400000424280044242924B5B6AAF
:10557C0003F00203002BE9D17B681B6803F00403E2
:10558C00002B00F0A6800023FB758B4BDB6903F02E
:10559C008053002B0DD1884BDB69874A43F0805335
:1055AC00D361854BDB6903F08053BB60BB6801237F
:1055BC00FB75824B1B6803F48073002B18D17F4B57
:1055CC001B687E4A43F480731360FCF73FF8386124
:1055DC0008E0FCF73BF802463B69D31A642B01D96F
:1055EC00032303E1754B1B6803F48073002BF0D08D
:1055FC007B68DB68012B06D16F4B1B6A6E4A43F04C
:10560C00010313622DE07B68DB68002B0CD16A4B25
:10561C001B6A694A23F001031362674B1B6A664AD3
:10562C0023F0040313621CE07B68DB68052B0CD1B0
:10563C00614B1B6A604A43F0040313625E4B1B6AA6
:10564C005D4A43F0010313620BE05B4B1B6A5A4A41
:10565C0023F001031362584B1B6A574A23F00403CF
:10566C0013627B68DB68002B15D0FBF7EFFF38610A
:10567C000AE0FBF7EBFF02463B69D31A41F2883292
:10568C00934201D90323B1E04B4B1B6A03F0020395
:10569C00002BEED014E0FBF7D9FF38610AE0FBF7E2
:1056AC00D5FF02463B69D31A41F28832934201D9A5
:1056BC0003239BE0404B1B6A03F00203002BEED14B
:1056CC00FB7D012B05D13C4BDB693B4A23F080531E
:1056DC00D3617B68DB69002B00F08780364B5B68FD
:1056EC0003F00C03082B61D07B68DB69022B46D1DD
:1056FC00334B00221A60FBF7A9FF386108E0FBF777
:10570C00A5FF02463B69D31A022B01D903236DE096
:10571C00294B1B6803F00073002BF0D17B681B6ACC
:10572C00B3F5803F08D1244B5B6823F400327B68CF
:10573C009B68214913434B601F4B5B6823F4741225
:10574C007B68196A7B685B6A0B431B4913434B608C
:10575C001B4B01221A60FBF779FF386108E0FBF75D
:10576C0075FF02463B69D31A022B01D903233DE096
:10577C00114B1B6803F00073002BF0D035E0104B7D
:10578C0000221A60FBF762FF386108E0FBF75EFF4E
:10579C0002463B69D31A022B01D9032326E0064BA0
:1057AC001B6803F00073002BF0D11EE07B68DB69F3
:1057BC00012B07D1012319E00010024000700040BA
:1057CC00600042420B4B5B68FB60FB6803F4803269
:1057DC007B681B6A9A4206D1FB6803F470127B68E3
:1057EC005B6A9A4201D0012300E000231846183767
:1057FC00BD4680BD0010024080B584B000AF78601B
:10580C0039607B68002B01D10123D0E06A4B1B6807
:10581C0003F007033A689A4210D9674B1B6823F0D0
:10582C00070265493B6813430B60634B1B6803F02D
:10583C0007033A689A4201D00123B8E07B681B68E1
:10584C0003F00203002B20D07B681B6803F00403D9
:10585C00002B05D0594B5B68584A43F4E063536006
:10586C007B681B6803F00803002B05D0534B5B6867
:10587C00524A43F460535360504B5B6823F0F00280
:10588C007B689B684D4913434B607B681B6803F036
:10589C000103002B40D07B685B68012B07D1474B81
:1058AC001B6803F40033002B15D101237FE07B68C8
:1058BC005B68022B07D1414B1B6803F00073002B74
:1058CC0009D1012373E03D4B1B6803F00203002B4D
:1058DC0001D101236BE0394B5B6823F003027B6839
:1058EC005B68364913434B60FBF7B0FEF8600AE087
:1058FC00FBF7ACFE0246FB68D31A41F288329342A6
:10590C0001D9032353E02D4B5B6803F00C027B6839
:10591C005B689B009A42EBD1274B1B6803F0070393
:10592C003A689A4210D2244B1B6823F00702224992
:10593C003B6813430B60204B1B6803F007033A686A
:10594C009A4201D0012332E07B681B6803F0040308
:10595C00002B08D0194B5B6823F4E0627B68DB6892
:10596C00164913434B607B681B6803F00803002B3C
:10597C0009D0124B5B6823F460527B681B69DB0017
:10598C000E4913434B6000F021F802460B4B5B6849
:10599C001B0903F00F030A49CB5C22FA03F3094AF3
:1059AC001360094B1B681846FBF70EFE00231846C4
:1059BC001037BD4680BD00BF0020024000100240E1
:1059CC0068B30008000000200400002080B487B0F9
:1059DC0000AF0023FB600023BB6000237B6100232E
:1059EC007B6000233B611E4B5B68FB60FB6803F034
:1059FC000C03042B02D0082B03D027E0194B3B617E
:105A0C0027E0FB689B0C03F00F03174AD35C7B6009
:105A1C00FB6803F48033002B10D0114B5B685B0CDC
:105A2C0003F00103114AD35CBB607B680D4A03FB96
:105A3C0002F2BB68B2FBF3F37B6104E07B680C4AB7
:105A4C0002FB03F37B617B693B6102E0054B3B612D
:105A5C0000BF3B6918461C37BD4680BC704700BF71
:105A6C000010024000127A0080B3000890B30008C6
:105A7C0000093D0080B400AF024B1B681846BD46C0
:105A8C0080BC70470000002080B500AFFFF7F2FF2C
:105A9C000246054B5B681B0A03F007030349CB5C0A
:105AAC0022FA03F3184680BD0010024078B30008B8
:105ABC0080B500AFFFF7DEFF0246054B5B68DB0AE3
:105ACC0003F007030349CB5C22FA03F3184680BDAD
