:020000040800F2
:1000000000500020011400081911000821110008F7
:100010002911000831110008391100080000000002
:100020000000000000000000000000004111000876
:100030004D1100080000000059110008651100086A
:10004000491400084914000849140008491400081C
:10005000491400084914000849140008491400080C
:1000600049140008491400084914000849140008FC
:1000700049140008491400084914000849140008EC
:1000800049140008491400084914000849140008DC
:1000900049140008491400084914000849140008CC
:1000A00049140008491400084914000849140008BC
:1000B00049140008491400084914000849140008AC
:1000C000491400084914000849140008491400089C
:1000D000491400084914000849140008491400088C
:1000E00049140008491400084914000800000000E1
:1000F0000000000000000000000000000000000000
:0C01000000000000000000005FF808F1A3
:10010C0010B5054C237833B9044B13B10448AFF345
:10011C0000800123237010BD0C00002000000000A3
:10012C001C53000808B5034B1BB103490348AFF33C
:10013C00008008BD00000000100000201C530008C7
:10014C0080F0004002E000BF81F0004142001FBF80
:10015C005FEA410392EA030F7FEA226C7FEA236C89
:10016C006AD04FEA1262D2EB1363C1BFD21841407E
:10017C0048404140B8BF5B42192B88BF704710F014
:10018C00004F40F4000020F07F4018BF404211F0B7
:10019C00004F41F4000121F07F4118BF494292EA1F
:1001AC00030F3FD0A2F1010241FA03FC10EB0C004B
:1001BC00C3F1200301FA03F100F0004302D54942D8
:1001CC0060EB4000B0F5000F13D3B0F1807F06D385
:1001DC0040084FEA310102F10102FE2A51D2B1F17D
:1001EC00004F40EBC25008BF20F0010040EA030072
:1001FC007047490040EB0000013A28BFB0F5000FF2
:10020C00EDD2B0FA80FCACF1080CB2EB0C0200FAA7
:10021C000CF0AABF00EBC25052421843BCBFD040F6
:10022C001843704792F0000F81F4000106BF80F470
:10023C0000000132013BB5E74FEA41037FEA226C33
:10024C0018BF7FEA236C21D092EA030F04D092F0FE
:10025C00000F08BF0846704790EA010F1CBF002032
:10026C00704712F07F4F04D1400028BF40F000408F
:10027C00704712F100723CBF00F50000704700F0AF
:10028C00004343F0FE4040F4000070477FEA2262D6
:10029C0016BF08467FEA23630146420206BF5FEAA7
:1002AC00412390EA010F40F4800070474FF00003A7
:1002BC0004E000BF10F0004348BF40425FEA000C6E
:1002CC0008BF704743F0964301464FF000001CE016
:1002DC0050EA010208BF70474FF000030AE000BF6C
:1002EC0050EA010208BF704711F0004302D54042AA
:1002FC0061EB41015FEA010C02BF8446014600201C
:10030C0043F0B64308BFA3F18053A3F50003BCFA36
:10031C008CF2083AA3EBC25310DB01FA02FC6344E3
:10032C0000FA02FCC2F12002BCF1004F20FA02F2EA
:10033C0043EB020008BF20F00100704702F12002DD
:10034C0001FA02FCC2F1200250EA4C0021FA02F23E
:10035C0043EB020008BF20EADC7070474FF0FF0C43
:10036C001CEAD0521EBF1CEAD15392EA0C0F93EA3E
:10037C000C0F6FD01A4480EA010C400218BF5FEAE0
:10038C0041211ED04FF0006343EA501043EA511153
:10039C00A0FB01310CF00040B1F5000F3EBF49004D
:1003AC0041EAD3715B0040EA010062F17F02FD2A51
:1003BC001DD8B3F1004F40EBC25008BF20F0010034
:1003CC00704790F0000F0CF0004C08BF49024CEA4B
:1003DC00502040EA51207F3AC2BFD2F1FF0340EADD
:1003EC00C250704740F400004FF00003013A5DDC4E
:1003FC0012F1190FDCBF00F000407047C2F100028F
:10040C00410021FA02F1C2F1200200FA02FC5FEA7B
:10041C00310040F1000053EA4C0308BF20EADC70C5
:10042C00704792F0000F00F0004C02BF400010F437
:10043C00000F013AF9D040EA0C0093F0000F01F0E4
:10044C00004C02BF490011F4000F013BF9D041EA06
:10045C000C018FE70CEAD15392EA0C0F18BF93EA08
:10046C000C0F0AD030F0004C18BF31F0004CD8D132
:10047C0080EA010000F00040704790F0000F17BFB9
:10048C0090F0004F084691F0000F91F0004F14D0FF
:10049C0092EA0C0F01D142020FD193EA0C0F03D157
:1004AC004B0218BF084608D180EA010000F000405A
:1004BC0040F0FE4040F40000704740F0FE4040F435
:1004CC00400070474FF0FF0C1CEAD0521EBF1CEAD4
:1004DC00D15392EA0C0F93EA0C0F69D0A2EB0302F2
:1004EC0080EA010C49024FEA402037D04FF080538C
:1004FC0043EA111143EA10130CF000408B4238BF51
:10050C005B0042F17D024FF4000C8B4224BF5B1A5E
:10051C0040EA0C00B3EB510F24BFA3EB510340EAAC
:10052C005C00B3EB910F24BFA3EB910340EA9C005A
:10053C00B3EBD10F24BFA3EBD10340EADC001B01CA
:10054C0018BF5FEA1C1CE0D1FD2A3FF650AF8B426E
:10055C0040EBC25008BF20F0010070470CF0004C7B
:10056C004CEA50207F32C2BFD2F1FF0340EAC250A6
:10057C00704740F400004FF00003013A37E792F067
:10058C00000F00F0004C02BF400010F4000F013AC5
:10059C00F9D040EA0C0093F0000F01F0004C02BFC0
:1005AC00490011F4000F013BF9D041EA0C0195E729
:1005BC000CEAD15392EA0C0F08D142027FF47DAFC2
:1005CC0093EA0C0F7FF470AF084676E793EA0C0FB2
:1005DC0004D14B023FF44CAF08466EE730F0004CB0
:1005EC0018BF31F0004CCAD130F000427FF45CAF40
:1005FC0031F000437FF43CAF5FE700BF80B584B0BF
:10060C0000AF3B1D00221A605A609A60184B194AC1
:10061C001A60174B00229A60154B00221A73144B68
:10062C0000221A75124B4FF46022DA61104B002233
:10063C005A600F4B01221A610D4800F087FF0346E8
:10064C00002B01D000F029FD04237B600123BB604B
:10065C000023FB603B1D1946054801F03BFA03469D
:10066C00002B01D000F019FD00BF1037BD4680BD36
:10067C00280000200024014080B588B000AF7860CD
:10068C0007F1100300221A605A609A60DA607B68E6
:10069C001B68144A934221D1134B9B69124A43F4B1
:1006AC0000739361104B9B6903F40073FB60FB6850
:1006BC000D4B9B690C4A43F0040393610A4B9B69F5
:1006CC0003F00403BB60BB6830233B6103237B61F5
:1006DC0007F110031946054801F074FC00BF2037E0
:1006EC00BD4680BD002401400010024000080140BE
:1006FC0080B582B000AF0346FB80012204210F4875
:10070C0001F0FBFD002208210C4801F0F6FD01224E
:10071C0001210B4801F0F1FD00220221084801F0F3
:10072C00ECFD084B1B68FA885A63064B1B68FA8869
:10073C009A6300BF0837BD4680BD00BF000801406A
:10074C00000C01402401002080B582B000AF0346AC
:10075C00FB80002204210F4801F0CFFD012208216B
:10076C000C4801F0CAFD002201210B4801F0C5FD27
:10077C0001220221084801F0C0FD084B1B68FA88D1
:10078C005A63064B1B68FA889A6300BF0837BD464C
:10079C0080BD00BF00080140000C01402401002076
:1007AC0080B500AF002204210D4801F0A6FD002207
:1007BC0008210B4801F0A1FD00220121094801F09C
:1007CC009CFD00220221074801F097FD064B1B6897
:1007DC0000225A63044B1B6800229A6300BF80BD41
:1007EC0000080140000C01402401002080B586B0B7
:1007FC0000AF0346FB80B7F90630002B57D0B7F992
:10080C000630002B06DD01224FF400512A4801F07E
:10081C0074FD09E000224FF40051274801F06DFDF2
:10082C00FB885B429BB2FB8000237B6139E0012299
:10083C004FF48051204801F060FD00233B6102E041
:10084C003B6901333B613B69B3F5FA6FF8DB00227E
:10085C004FF48051184801F050FD0023FB6002E07A
:10086C00FB680133FB60FB68B3F5FA6FF8DB4FF400
:10087C000051114801F02AFD0346012B07D10F4B03
:10088C00D3F8153001330D4AC2F8153006E00B4B86
:10089C00D3F81530013B094AC2F815307B69013396
:1008AC007B61B7F906307A699A42C0DB00E000BF81
:1008BC001837BD4680BD00BF000C01405800002019
:1008CC0080B586B004AF0323FB716423029301232C
:1008DC000193FB1D0093012380225221044801F057
:1008EC0081FE322000F00EFE00BF0837BD4680BDF1
:1008FC007400002080B58CB004AFF860B9607A60E9
:10090C003B600A2302930823019307F11803009319
:10091C00012394225221294801F05EFF0346002B4B
:10092C002CD17B7E1BB21B021AB23B7E1BB2134333
:10093C001BB29AB23B681A80FB7E1BB21B021AB226
:10094C00BB7E1BB213431BB29AB2FB681A807B7F2F
:10095C001BB21B021AB23B7F1BB213431BB29AB2DF
:10096C00BB681A80FB7F1BB21B021AB2BB7F1BB287
:10097C0013431BB29AB27B681A801AE03B680022C0
:10098C001A80FB6800221A80BB6800221A807B68E0
:10099C0000221A800323FB750A230293012301937F
:1009AC0007F117030093012380225221034801F021
:1009BC0019FE00BF2037BD4680BD00BF740000206B
:1009CC0080B588B004AF786000233B811423029378
:1009DC000223019307F10803009301230C228021C9
:1009EC00154801F0F9FE0346FB73FB7B002B1CD171
:1009FC003B7A1BB21B021AB27B7A1BB213431BB29B
:100A0C00BB81BB891846FFF751FC03460B491846BE
:100A1C00FFF7A4FC03464FF08B411846FFF752FD3D
:100A2C0003461A467B681A6002E07B68044A1A6027
:100A3C0000BF1037BD4680BDC80000200000B44385
:100A4C00000080BF80B584B000AF0023FB73124B55
:100A5C007B600223BB6009E0BB687A6813441A7898
:100A6C00FB7B5340FB73BB680133BB60BB68192B2A
:100A7C00F2D9094AFB7B937664231B22064907486B
:100A8C0004F0AEF94FF40051054801F04EFC00BFE4
:100A9C001037BD4680BD00BF580000206C010020FF
:100AAC000010014080B588B000AF07F110030022A0
:100ABC001A605A609A60DA60394B9B69384A43F085
:100ACC0010039361364B9B6903F01003FB60FB68CA
:100ADC00334B9B69324A43F020039361304B9B6943
:100AEC0003F02003BB60BB682D4B9B692C4A43F081
:100AFC00040393612A4B9B6903F004037B607B68BE
:100B0C00274B9B69264A43F008039361244B9B694E
:100B1C0003F008033B603B6800224FF4005121486E
:100B2C0001F0EBFB00224FF486711F4801F0E5FB4E
:100B3C00002243F203011D4801F0DFFB4FF4005388
:100B4C003B6101237B610023BB610223FB6107F145
:100B5C0010031946134801F035FA4FF486733B61C4
:100B6C0001237B610023BB610223FB6107F11003AE
:100B7C0019460D4801F026FA43F203033B610123A9
:100B8C007B610023BB610223FB6107F11003194653
:100B9C00064801F017FA00BF2037BD4680BD00BFE4
:100BAC00001002400010014000080140000C014000
:100BBC0080B500AF124B134A1A60114B124A5A609F
:100BCC000F4B00229A600E4B0022DA600C4B4FF454
:100BDC0080421A610A4B00225A61094B00229A6129
:100BEC00074B0022DA61064B00221A62044801F01E
:100BFC00B5FB0346002B01D000F04FFA00BF80BDBF
:100C0C007400002000540040A086010080B500AFA5
:100C1C00124B134A1A60114B124A5A600F4B0022A6
:100C2C009A600E4B0022DA600C4B4FF480421A6132
:100C3C000A4B00225A61094B00229A61074B002291
:100C4C00DA61064B00221A62044801F087FB034666
:100C5C00002B01D000F021FA00BF80BDC80000209D
:100C6C0000580040A086010080B58AB000AF7860C3
:100C7C0007F1180300221A605A609A60DA607B68E8
:100C8C001B682B4A934224D12A4B9B69294A43F077
:100C9C0008039361274B9B6903F008037B617B6915
:100CAC00C023BB611223FB6103237B6207F1180392
:100CBC001946214801F086F91E4BDB691D4A43F4A5
:100CCC000013D3611B4BDB6903F400133B613B69DD
:100CDC0029E07B681B68194A934224D1154B9B6908
:100CEC00144A43F008039361124B9B6903F0080309
:100CFC00FB60FB684FF44063BB611223FB61032371
:100D0C007B6207F1180319460B4801F05BF9094B9C
:100D1C00DB69084A43F48003D361064BDB6903F4B7
:100D2C008003BB60BB6800BF2837BD4680BD00BFD9
:100D3C000054004000100240000C014000580040DC
:100D4C0080B588B000AF00F07BFB00F04BF9FFF7EB
:100D5C00A9FEFFF72DFF00F00BFA00F0D5FAFFF714
:100D6C004DFCFFF753FF8F4BAA221A708D4B552267
:100D7C005A708C4B02229A7000218B4803F0A6FA11
:100D8C000421894803F0A2FAFFF79AFDC82000F06D
:100D9C00B9FB00F0ADFB0246844B1B68D31AB3F5CC
:100DAC00FA7F09D34FF40051814801F0BEFA00F0EC
:100DBC009FFB03467D4A136007F118010A230222A8
:100DCC007C4804F098F80346002B4ED13B7EFF2B59
:100DDC000CD17B7E012B09D1774BBB6007F108014D
:100DEC0064230422734803F0FBFF3EE03B7EAA2BF6
:100DFC003BD17B7E552B38D1391D142304226D48F1
:100E0C0004F079F80346002B2FD13B79BB77BB79E3
:100E1C001BB21B021AB27B791BB21343BB83BB7F81
:100E2C00032B1AD15F4BBA8BA3F81320B7F91C30E4
:100E3C00002B04DDBB8B1846FFF75AFC15E0B7F905
:100E4C001C30002B06DABB8B5B429BB21846FFF7BB
:100E5C007BFC0AE0FFF7A4FC07E0BB7F042B04D16A
:100E6C00B7F91C301846FFF7C1FC07F10C03002240
:100E7C001A605A609A600423FB6001233B610223D1
:100E8C007B6107F10C0319464C4800F023FE4B48DC
:100E9C0000F034FC0A21494800F00AFD0346002BFF
:100EAC0007D1464800F00AFE03469AB23D4BA3F820
:100EBC000320424800F0D0FC0523FB6001233B617A
:100ECC0002237B6107F10C0319463C4800F002FE3B
:100EDC003A4800F013FC0A21384800F0E9FC0346BC
:100EEC00002B07D1354800F0E9FD03469AB22D4B93
:100EFC00A3F80520314800F0AFFC0023FB77022358
:100F0C00012252212E4801F0DBFE0346002B0AD1B0
:100F1C00FB7F43F00103FB772A4B2B4A2B492C48D0
:100F2C00FFF7E8FC15E01F4B0022DA7100221A7261
:100F3C001C4B00225A7200229A721A4B0022DA724F
:100F4C0000221A73174B00225A7300229A73FFF770
:100F5C00B7FC0223012280211E4801F0B1FE03469A
:100F6C00002B07D1FB7F43F00203FB771A48FFF7F6
:100F7C0027FD03E00B4B194AC3F80F20094AFB7FEE
:100F8C00537600F0B5FA0246154B1B68D31A632B47
:100F9C007FF6FFAEFFF756FD00F0AAFA0346104AA3
:100FAC001360F6E658000020240100201C010020EC
:100FBC00001001406C010020AA55010128000020FE
:100FCC0074000020650000206300002061000020F8
:100FDC005F000020C800002067000020000080BFD8
:100FEC002001002080B594B000AF07F1280328221F
:100FFC000021184604F060F907F1140300221A606E
:10100C005A609A60DA601A613B1D00221A605A60BD
:10101C009A60DA600123BB624FF48033FB620023D9
:10102C003B630123BB6302237B644FF48033BB64BB
:10103C004FF4E013FB6407F12803184602F022FB7F
:10104C000346002B01D000F028F80F237B6102230C
:10105C00BB610023FB614FF480633B6200237B6226
:10106C0007F114030221184602F08EFD0346002BF3
:10107C0001D000F012F802237B604FF40043FB60B8
:10108C003B1D184602F00EFF0346002B01D000F06A
:10109C0004F800BF5037BD4680BD80B400AF72B6B7
:1010AC0000BF00BFFDE7000080B485B000AF154B5A
:1010BC009B69144A43F001039361124B9B6903F043
:1010CC000103BB60BB680F4BDB690E4A43F08053D6
:1010DC00D3610C4BDB6903F080537B607B680A4B5C
:1010EC005B68FB60FB6823F0E063FB60FB6843F02C
:1010FC000073FB60044AFB68536000BF1437BD46A5
:10110C0080BC7047001002400000014080B400AF6A
:10111C0000BFFDE780B400AF00BFFDE780B400AFB7
:10112C0000BFFDE780B400AF00BFFDE780B400AFA7
:10113C0000BFFDE780B400AF00BFBD4680BC704768
:10114C0080B400AF00BFBD4680BC704780B400AF18
:10115C0000BFBD4680BC704780B500AF00F0B6F94B
:10116C0000BF80BD80B400AF00BFBD4680BC7047DF
:10117C0080B58EB000AF07F1280300221A605A60C8
:10118C009A60DA6007F1200300221A605A603B1D56
:10119C0000221A605A609A60DA601A615A619A6188
:1011AC00324B4FF080421A60304B00225A602F4B6A
:1011BC0000229A602D4B4FF6FF72DA602B4B002207
:1011CC001A612A4B00229A61284802F0D7FF034685
:1011DC00002B01D0FFF761FF4FF48053BB6207F186
:1011EC0028031946214803F0D5F90346002B01D0FA
:1011FC00FFF753FF1D4803F010F80346002B01D0F6
:10120C00FFF74BFF00233B6200237B6207F12003B7
:10121C001946164803F036FD0346002B01D0FFF7A4
:10122C003CFF60237B600023BB600023FB6000233A
:10123C007B613B1D002219460C4803F0E9F803467C
:10124C00002B01D0FFF729FF3B1D0422194607484C
:10125C0003F0DEF80346002B01D0FFF71EFF034816
:10126C0000F022F800BF3837BD4680BD24010020B5
:10127C0080B485B000AF78607B681B68B3F1804F99
:10128C000BD1084BDB69074A43F00103D361054BD3
:10129C00DB6903F00103FB60FB6800BF1437BD463C
:1012AC0080BC70470010024080B588B000AF7860F9
:1012BC0007F1100300221A605A609A60DA607B68AA
:1012CC001B68B3F1804F17D10D4B9B690C4A43F04F
:1012DC00040393610A4B9B6903F00403FB60FB68F6
:1012EC0003233B6102237B610223FB6107F11003A3
:1012FC001946044800F066FE00BF2037BD4680BD8D
:10130C00001002400008014080B500AF114B124A9A
:10131C001A60104B4FF4E1325A600E4B00229A6067
:10132C000C4B0022DA600B4B00221A61094B0C2289
:10133C005A61084B00229A61064B0022DA6105487B
:10134C0003F0FEFC0346002B01D0FFF7A6FE00BF06
:10135C0080BD00BF6C0100200038014080B588B012
:10136C0000AF786007F1100300221A605A609A608F
:10137C00DA607B681B681C4A934231D11B4B9B691A
:10138C001A4A43F480439361184B9B6903F48043DE
:10139C00FB60FB68154B9B69144A43F00403936193
:1013AC00124B9B6903F00403BB60BB684FF40073E2
:1013BC003B6102237B610323FB6107F11003194698
:1013CC000B4800F0FFFD4FF480633B6100237B6111
:1013DC000023BB6107F110031946054800F0F2FD2C
:1013EC0000BF2037BD4680BD0038014000100240D0
:1013FC0000080140FFF7B6FE0B480C490C4A0023CD
:10140C0002E0D458C4500433C4188C42F9D3094AAE
:10141C00094C002301E013600432A242FBD303F019
:10142C0053FFFFF78DFC7047000000200C000020DC
:10143C007C5300080C000020B8010020FEE70000DF
:10144C0080B500AF084B1B68074A43F010031360CC
:10145C00032000F083FD0F2000F008F8FFF724FEB6
:10146C000023184680BD00BF0020024080B582B02A
:10147C0000AF7860124B1A68124B1B7819464FF468
:10148C007A73B3FBF1F3B2FBF3F3184600F08DFD66
:10149C000346002B01D001230EE07B680F2B0AD8EA
:1014AC00002279684FF0FF3000F063FD064A7B683C
:1014BC001360002300E0012318460837BD4680BDA9
:1014CC0000000020080000200400002080B400AFC1
:1014DC00054B1B781A46054B1B681344034A1360D3
:1014EC0000BFBD4680BC704708000020B40100203E
:1014FC0080B400AF024B1B681846BD4680BC7047D9
:10150C00B401002080B584B000AF7860FFF7F0FF25
:10151C00B8607B68FB60FB68B3F1FF3F05D00A4BFA
:10152C001B781A46FB681344FB6000BFFFF7E0FF13
:10153C000246BB68D31AFA689A42F7D800BF00BFBC
:10154C001037BD4680BD00BF0800002080B586B0B6
:10155C0000AF78600023FB7500233B610023BB6068
:10156C000023FB607B68002B01D10123BEE07B686C
:10157C009B68002B7B689B6A002B09D17B6800223F
:10158C00DA627B68002283F824207868FFF774F80D
:10159C00786800F0F1FB0346FB757B689B6A03F0EF
:1015AC001003002B40F09980FB7D002B40F09580C0
:1015BC007B689B6A23F4885323F0020343F00202F6
:1015CC007B689A627B685A687B68DB691A437B6824
:1015DC001B7B5B001343BA681343BB607B689B683F
:1015EC00B3F5807F03D07B689B68012B02D14FF44D
:1015FC00807300E000233A6913433B617B681B7DD9
:10160C00012B19D17B681B7B002B09D17B689B6953
:10161C00013B5A033B69134343F400633B610BE00A
:10162C007B689B6A43F020027B689A627B68DB6A6A
:10163C0043F001027B68DA627B681B685B6823F409
:10164C0069417B681B683A690A435A607B681B686E
:10165C009A68284B13407A681268B9680B439360F8
:10166C007B689B68B3F5807F03D07B689B68012BFC
:10167C0004D17B681B69013B1B05FB607B681B6805
:10168C00DB6A23F470017B681B68FA680A43DA6230
:10169C007B681B689A68184B1340BA689A420BD146
:1016AC007B680022DA627B689B6A23F0030343F0B9
:1016BC0001027B689A6218E07B689B6A23F0120334
:1016CC0043F010027B689A627B68DB6A43F001028C
:1016DC007B68DA620123FB7507E07B689B6A43F049
:1016EC0010027B689A620123FB75FB7D1846183744
:1016FC00BD4680BDFDF7E1FFFE0E1FFF80B584B037
:10170C0000AF78600023FB737B6893F82430012BC7
:10171C0001D1022398E07B68012283F824207868A9
:10172C0000F0D0FA0346FB73FB7B002B40F0878064
:10173C007B689B6A23F4407323F0010343F48072AB
:10174C007B689A627B681B68414A934205D1414B86
:10175C005B6803F47023002B15D17B689B6A23F420
:10176C0080127B689A627B681B685B6803F48063F9
:10177C00002B26D07B689B6A23F4405343F48052A1
:10178C007B689A621DE07B689B6A43F480127B68DD
:10179C009A627B681B682F4A934204D07B681B6853
:1017AC002B4A93420DD12B4B5B6803F48063002BC7
:1017BC0007D07B689B6A23F4405343F480527B68C8
:1017CC009A627B689B6A03F48053002B06D07B687B
:1017DC00DB6A23F006027B68DA6202E07B68002297
:1017EC00DA627B68002283F824207B681B686FF028
:1017FC0002021A607B681B689B6803F46023B3F5D4
:10180C00602F13D17B681B68114A934205D1114B91
:10181C005B6803F47023002B08D17B681B689A6803
:10182C007B681B6842F4A0029A600CE07B681B6822
:10183C009A687B681B6842F480129A6003E07B68AC
:10184C00002283F82420FB7B18461037BD4680BD50
:10185C00002801400024014080B584B000AF7860BE
:10186C000023FB737B6893F82430012B01D10223F6
:10187C001AE07B68012283F82420786800F07CFA57
:10188C000346FB73FB7B002B09D17B689B6A23F41B
:10189C00885323F0010343F001027B689A627B6852
:1018AC00002283F82420FB7B18461037BD4680BDF0
:1018BC0090B587B000AF7860396000237B6100235E
:1018CC00FB6000233B61FFF713FE78617B681B68AC
:1018DC009B6803F48073002B0BD07B689B6A43F0EE
:1018EC0020027B689A627B68002283F82420012303
:1018FC00D3E07B681B685B6803F48073002B31D1E9
:10190C007B681B68DB6A03F47003002B2AD121E08F
:10191C003B68B3F1FF3F1DD03B68002B07D0FFF7AE
:10192C00E7FD02467B69D31A3A689A4212D27B6869
:10193C001B681B6803F00203002B0BD17B689B6AAE
:10194C0043F004027B689A627B68002283F82420AF
:10195C000323A2E07B681B681B6803F00203002BC7
:10196C00D6D070E04F4B1C68022002F051FB0346AE
:10197C00B4FBF3F27B681B6819694B4B0B40002BD3
:10198C0018D17B681B68D968484B0B40002B11D1D0
:10199C007B681B681969464B0B40002B08D17B6890
:1019AC001B68D968434B0B40002B01D1142320E05A
:1019BC0029231EE07B681B6819693D4B0B40002BEB
:1019CC0006D17B681B68D9683A4B0B40002B0DD0B5
:1019DC007B681B681969384B0B40002B08D17B685E
:1019EC001B68D968344B0B40002B01D1542300E009
:1019FC00FC2302FB03F33B6121E03B68B3F1FF3FA7
:101A0C001AD03B68002B07D0FFF772FD02467B69AA
:101A1C00D31A3A689A420FD2FB683A699A420BD9A8
:101A2C007B689B6A43F004027B689A627B680022A5
:101A3C0083F82420032330E0FB680133FB60FB6850
:101A4C003A699A42D9D87B681B686FF012021A6007
:101A5C007B689B6A43F400727B689A627B681B68A4
:101A6C009B6803F46023B3F5602F15D17B681B7B57
:101A7C00002B11D17B689B6A23F480727B689A627D
:101A8C007B689B6A03F48053002B05D17B689B6AAF
:101A9C0043F001027B689A62002318461C37BD464E
:101AAC0090BD00BF000000202449922424499200DC
:101ABC0092244912922449004992240080B483B0A4
:101ACC0000AF78607B681B68DB6C18460C37BD4632
:101ADC0080BC704780B485B000AF7860396000235B
:101AEC00FB730023BB607B6893F82430012B01D17E
:101AFC000223DCE07B68012283F824203B685B68CE
:101B0C00062B1CD87B681B68596B3B685A681346BC
:101B1C009B001344053B1F2202FA03F3DB431940DD
:101B2C003B6818683B685A6813469B001344053B96
:101B3C0000FA03F27B681B680A435A633CE03B687B
:101B4C005B680C2B1CD87B681B68196B3B685A684C
:101B5C0013469B001344233B1F2202FA03F3DB437F
:101B6C0019403B6818683B685A6813469B0013443D
:101B7C00233B00FA03F27B681B680A431A631BE0E1
:101B8C007B681B68D96A3B685A6813469B001344F0
:101B9C00413B1F2202FA03F3DB4319403B681868F0
:101BAC003B685A6813469B001344413B00FA03F20E
:101BBC007B681B680A43DA623B681B68092B1CD9DB
:101BCC007B681B68D9683B681A6813465B00134432
:101BDC001E3B072202FA03F3DB4319403B6898686B
:101BEC003B681A6813465B0013441E3B00FA03F271
:101BFC007B681B680A43DA6019E07B681B6819690B
:101C0C003B681A6813465B001344072202FA03F37D
:101C1C00DB4319403B6898683B681A6813465B00C5
:101C2C00134400FA03F27B681B680A431A613B6891
:101C3C001B68102B03D03B681B68112B32D17B68BF
:101C4C001B681D4A934225D17B681B689B6803F473
:101C5C000003002B26D17B681B689A687B681B6885
:101C6C0042F400029A603B681B68102B1AD1134B8C
:101C7C001B68134AA2FB03239A0C13469B001344C4
:101C8C005B00BB6002E0BB68013BBB60BB68002B28
:101C9C00F9D107E07B689B6A43F020027B689A626B
:101CAC000123FB737B68002283F82420FB7B1846FE
:101CBC001437BD4680BC7047002401400000002052
:101CCC0083DE1B4380B584B000AF78600023FB60DB
:101CDC000023BB607B681B689B6803F00103012B2E
:101CEC0040D07B681B689A687B681B6842F00102D5
:101CFC009A601F4B1B681F4AA2FB03239B0CBB6003
:101D0C0002E0BB68013BBB60BB68002BF9D1FFF75D
:101D1C00EFFBF8601FE0FFF7EBFB0246FB68D31A02
:101D2C00022B18D97B681B689B6803F00103012BFD
:101D3C0011D07B689B6A43F010027B689A627B68C7
:101D4C00DB6A43F001027B68DA627B68002283F86D
:101D5C002420012307E07B681B689B6803F00103C8
:101D6C00012BD8D1002318461037BD4680BD00BFCB
:101D7C000000002083DE1B4380B584B000AF786088
:101D8C000023FB607B681B689B6803F00103012B3D
:101D9C002ED17B681B689A687B681B6822F0010255
:101DAC009A60FFF7A5FBF8601BE0FFF7A1FB02466A
:101DBC00FB68D31A022B14D97B681B689B6803F051
:101DCC000103012B0DD17B689B6A43F010027B68E9
:101DDC009A627B68DB6A43F001027B68DA6201235A
:101DEC0007E07B681B689B6803F00103012BDCD0C8
:101DFC00002318461037BD4680BD000080B485B066
:101E0C0000AF78607B6803F00703FB600C4BDB686A
:101E1C00BB60BA684FF6FF031340BB60FB681A0245
:101E2C00BB68134343F0BF6343F40033BB60044A05
:101E3C00BB68D36000BF1437BD4680BC704700BF81
:101E4C0000ED00E080B400AF044BDB681B0A03F02C
:101E5C0007031846BD4680BC704700BF00ED00E08C
:101E6C0080B483B000AF03463960FB7197F907303B
:101E7C00002B0ADB3B68DAB20C4997F907301201E8
:101E8C00D2B20B4483F800230AE03B68DAB208496B
:101E9C00FB7903F00F03043B1201D2B20B441A7608
:101EAC0000BF0C37BD4680BC704700BF00E100E0AE
:101EBC0000ED00E080B489B000AFF860B9607A60E2
:101ECC00FB6803F00703FB61FB69C3F10703042BF9
:101EDC0028BF0423BB61FB690433062B02D9FB69C1
:101EEC00033B00E000237B614FF0FF32BB6902FA39
:101EFC0003F3DA43BB681A407B699A404FF0FF3119
:101F0C007B6901FA03F3D9437B680B4013431846F2
:101F1C002437BD4680BC704780B582B000AF786076
:101F2C007B68013BB3F1807F01D301230FE00A4AA8
:101F3C007B68013B53600F214FF0FF30FFF790FFA0
:101F4C00054B00229A60044B07221A6000231846A6
:101F5C000837BD4680BD00BF10E000E080B582B000
:101F6C0000AF78607868FFF749FF00BF0837BD46BF
:101F7C0080BD80B586B000AF0346B9607A60FB7354
:101F8C0000237B61FFF75EFF78617A68B968786936
:101F9C00FFF790FF024697F90F3011461846FFF7EE
:101FAC005FFF00BF1837BD4680BD80B582B000AF63
:101FBC0078607868FFF7B0FF034618460837BD46CF
:101FCC0080BD000080B48BB000AF78603960002316
:101FDC007B6200233B6269E101227B6A02FA03F314
:101FEC00FB613B681B68FA691340BB61BA69FB690A
:101FFC009A4240F058813B685B689A4A93425ED0A3
:10200C00984A934275D8984A934258D0964A93422C
:10201C006FD8964A934252D0944A934269D8944AC4
:10202C0093424CD0924A934263D8924A934246D000
:10203C00904A93425DD8122B2AD8122B59D801A260
:10204C0052F823F0CB200008A5200008B720000888
:10205C00F9200008FF200008FF200008FF200008DE
:10206C00FF200008FF200008FF200008FF200008C8
:10207C00FF200008FF200008FF200008FF200008B8
:10208C00FF200008FF200008AD200008C120000838
:10209C00794A934213D02CE03B68DB683B6229E021
:1020AC003B68DB6804333B6224E03B68DB68083345
:1020BC003B621FE03B68DB680C333B621AE03B6819
:1020CC009B68002B02D104233B6213E03B689B68A6
:1020DC00012B05D108233B627B68FA691A6109E080
:1020EC0008233B627B68FA695A6103E000233B6278
:1020FC0000E000BFBB69FF2B01D87B6801E07B6867
:10210C0004337B61BB69FF2B02D87B6A9B0002E026
:10211C007B6A083B9B003B617B691A680F213B691A
:10212C0001FA03F3DB431A40396A3B6901FA03F302
:10213C001A437B691A603B685B6803F08053002B81
:10214C0000F0B1804D4B9B694C4A43F00103936105
:10215C004A4B9B6903F00103BB60BB68484A7B6A2E
:10216C009B08023352F82330FB607B6A03F00303B5
:10217C009B000F2202FA03F3DB43FA681340FB6067
:10218C007B68404A934213D07B683F4A93420DD000
:10219C007B683E4A934207D07B683D4A934201D10B
:1021AC00032306E0042304E0022302E0012300E001
:1021BC0000237A6A02F0030292009340FA681343F8
:1021CC00FB602F497B6A9B080233FA6841F8232095
:1021DC003B685B6803F48013002B06D02D4B9A6888
:1021EC002C49BB6913438B6006E02A4B9A68BB6988
:1021FC00DB43284913408B603B685B6803F4001396
:10220C00002B06D0234BDA682249BB691343CB6001
:10221C0006E0204BDA68BB69DB431E491340CB60F8
:10222C003B685B6803F40033002B06D0194B5A68EB
:10223C001849BB6913434B6006E0164B5A68BB69DF
:10224C00DB43144913404B603B685B6803F48033F9
:10225C00002B21D00F4B1A680E49BB6913430B603E
:10226C0021E000BF000032100000311000002210ED
:10227C00000021100000121000001110001002408C
:10228C000000014000080140000C0140001001401A
:10229C0000140140000401400B4B1A68BB69DB437E
:1022AC00094913400B607B6A01337B623B681A68F7
:1022BC007B6A22FA03F3002B7FF48EAE00BF00BFC3
:1022CC002C37BD4680BC70470004014080B485B0FB
:1022DC0000AF78600B467B807B689A687B881340E4
:1022EC00002B02D00123FB7301E00023FB73FB7B6B
:1022FC0018461437BD4680BC704780B483B000AF1D
:10230C0078600B467B8013467B707B78002B03D068
:10231C007A887B681A6103E07B881A047B681A61EF
:10232C0000BF0C37BD4680BC704780B485B000AF91
:10233C0078600B467B807B68DB68FB607A88FB6887
:10234C0013401A04FB68D9437B880B401A437B6803
:10235C001A6100BF1437BD4680BC704780B584B08D
:10236C0000AF78607B68002B01D101232BE17B68E7
:10237C0093F83D30DBB2002B06D17B68002283F84A
:10238C003C207868FEF770FC7B68242283F83D20A3
:10239C007B681B681A687B681B6822F001021A6054
:1023AC007B681B681A687B681B6842F400421A60E1
:1023BC007B681B681A687B681B6822F400421A60F1
:1023CC0001F02AFDF8607B685B68814A934207D86C
:1023DC00FB68804A934294BF01230023DBB206E0E2
:1023EC00FB687D4A934294BF01230023DBB2002B90
:1023FC0001D00123E7E0FB68784AA2FB03239B0C86
:10240C00BB607B681B685B6823F03F017B681B68C3
:10241C00BA680A435A607B681B681B6A23F03F0149
:10242C007B685B686A4A934202D8BB68013309E057
:10243C00BB684FF4967202FB03F3694AA2FB0323B9
:10244C009B0901337A6812680B4313627B681B6823
:10245C00DB6923F44F4222F0FF027B685B685C4926
:10246C008B4219D8FB68591E7B685B685B00B1FB1B
:10247C00F3F3591C40F6FC730B40002B0AD0FB689D
:10248C00591E7B685B685B00B1FBF3F30133C3F34C
:10249C000B0351E004234FE07B689B68002B11D1A8
:1024AC00FB68581E7B6859680B465B000B44B0FBFD
:1024BC00F3F30133C3F30B03002B0CBF01230023F5
:1024CC00DBB212E0FB68581E7B6859680B469B0018
:1024DC000B4499000B44B0FBF3F30133C3F30B0330
:1024EC00002B0CBF01230023DBB2002B01D00123F6
:1024FC0022E07B689B68002B0ED1FB68581E7B6822
:10250C0059680B465B000B44B0FBF3F30133C3F388
:10251C000B0343F400430FE0FB68581E7B685968BB
:10252C000B469B000B4499000B44B0FBF3F30133B7
:10253C00C3F30B0343F44043796809681343CB613D
:10254C007B681B681B6823F0C0017B68DA697B68B9
:10255C001B6A1A437B681B680A431A607B681B68FA
:10256C009B6823F4034323F0FF037A6811697A68AC
:10257C00D26811437A6812680B4393607B681B68BE
:10258C00DB6823F0FF017B685A697B689B691A43FF
:10259C007B681B680A43DA607B681B681A687B6877
:1025AC001B6842F001021A607B6800221A647B6887
:1025BC00202283F83D207B6800221A637B6800226E
:1025CC0083F83E20002318461037BD4680BD00BF5F
:1025DC00A08601007F841E00FF083D0083DE1B43A4
:1025EC00D34D621080B588B002AFF8600846114632
:1025FC001A4603467B810B463B811346FB80FEF754
:10260C0077FF7861FB6893F83D30DBB2202B40F00C
:10261C00D9807B690093192301226D49F86800F079
:10262C00FBFD0346002B01D00223CCE0FB6893F8A2
:10263C003C30012B01D10223C5E0FB68012283F859
:10264C003C20FB681B681B6803F00103012B07D0BF
:10265C00FB681B681A68FB681B6842F001021A6071
:10266C00FB681B681A68FB681B6822F400621A601E
:10267C00FB68212283F83D20FB68402283F83E2032
:10268C00FB6800221A64FB683A6A5A62FB68BA8CCF
:10269C005A85FB685B8D9AB2FB681A85FB684D4ABC
:1026AC00DA62F8883A8979897B690193BB6A00936D
:1026BC000346F86800F032FC0346002B52D001238D
:1026CC0081E07A69B96AF86800F0C0FE0346002B15
:1026DC000DD0FB681B6C042B07D1FB681B681A68B8
:1026EC00FB681B6842F400721A6001236BE0FB6804
:1026FC005B6A1A78FB681B681A61FB685B6A5A1C78
:10270C00FB685A62FB681B8D013B9AB2FB681A8509
:10271C00FB685B8D9BB2013B9AB2FB685A85FB68E8
:10272C001B685B6903F00403042B1BD1FB681B8D36
:10273C00002B17D0FB685B6A1A78FB681B681A6160
:10274C00FB685B6A5A1CFB685A62FB681B8D013B79
:10275C009AB2FB681A85FB685B8D9BB2013B9AB2FF
:10276C00FB685A85FB681B8D002BAAD17A69B96A64
:10277C00F86800F0B3FE0346002B0DD0FB681B6C11
:10278C00042B07D1FB681B681A68FB681B6842F4B2
:10279C0000721A60012316E0FB681B681A68FB685C
:1027AC001B6842F400721A60FB68202283F83D20FB
:1027BC00FB68002283F83E20FB68002283F83C2053
:1027CC00002300E0022318461837BD4680BD00BF29
:1027DC00020010000000FFFF80B58CB002AFF86063
:1027EC00084611461A4603467B810B463B8113462D
:1027FC00FB8000233B62FEF77BFE7862FB6893F85C
:10280C003D30DBB2202B40F050827B6A00931923C1
:10281C0001228249F86800F0FFFC0346002B01D02E
:10282C00022343E2FB6893F83C30012B01D10223D5
:10283C003CE2FB68012283F83C20FB681B681B68A8
:10284C0003F00103012B07D0FB681B681A68FB68B7
:10285C001B6842F001021A60FB681B681A68FB686F
:10286C001B6822F400621A60FB68222283F83D2068
:10287C00FB68402283F83E20FB6800221A64FB6848
:10288C003A6B5A62FB68BA8E5A85FB685B8D9AB2BA
:10289C00FB681A85FB68624ADA62F8883A8979899A
:1028AC007B6A0193BB6B00930346F86800F0CCFB8A
:1028BC000346002B01D00123F8E1FB681B8D002B94
:1028CC0013D10023FB61FB681B685B69FB61FB6830
:1028DC001B689B69FB61FB69FB681B681A68FB68DA
:1028EC001B6842F400721A60CCE1FB681B8D012B53
:1028FC001ED1FB681B681A68FB681B6822F4806297
:10290C001A6072B600BF0023BB61FB681B685B6971
:10291C00BB61FB681B689B69BB61BB69FB681B687F
:10292C001A68FB681B6842F400721A6062B635E0E4
:10293C00FB681B8D022B1ED1FB681B681A68FB6899
:10294C001B6842F400621A6072B600BF00237B6100
:10295C00FB681B685B697B61FB681B689B697B611F
:10296C007B69FB681B681A68FB681B6822F4806231
:10297C001A6062B612E0FB681B681A68FB681B6879
:10298C0042F480621A6000233B61FB681B685B6940
:10299C003B61FB681B689B693B613B6972E1FB68AF
:1029AC001B8D032B00F21F81FB681B8D012B23D188
:1029BC007A6AB96BF86800F0D9FD0346002B01D098
:1029CC00012373E1FB681B681A69FB685B6AD2B26E
:1029DC001A70FB685B6A5A1CFB685A62FB681B8D99
:1029EC00013B9AB2FB681A85FB685B8D9BB2013B7D
:1029FC009AB2FB685A8545E1FB681B8D022B52D1BC
:102A0C007B6A0093BB6B00220649F86800F004FC5B
:102A1C000346002B08D0012348E100BF0200100040
:102A2C000000FFFF0400010072B600BFFB681B68CA
:102A3C001A68FB681B6842F400721A60FB681B681A
:102A4C001A69FB685B6AD2B21A70FB685B6A5A1C23
:102A5C00FB685A62FB681B8D013B9AB2FB681A85B6
:102A6C00FB685B8D9BB2013B9AB2FB685A8562B6E0
:102A7C0000BFFB681B681A69FB685B6AD2B21A70EC
:102A8C00FB685B6A5A1CFB685A62FB681B8D013B36
:102A9C009AB2FB681A85FB685B8D9BB2013B9AB2BC
:102AAC00FB685A85EEE07B6A0093BB6B0022814980
:102ABC00F86800F0B1FB0346002B01D00123F5E0D0
:102ACC00FB681B681A68FB681B6822F480621A603A
:102ADC0072B600BFFB681B681A69FB685B6AD2B2EE
:102AEC001A70FB685B6A5A1CFB685A62FB681B8D88
:102AFC00013B9AB2FB681A85FB685B8D9BB2013B6C
:102B0C009AB2FB685A856C4B1B68DB086B4AA2FBBC
:102B1C0003231A0A13469B001344DA00D31A3B62B0
:102B2C003B6A013B3B623B6A002B18D1FB680022DD
:102B3C001A63FB68202283F83D20FB68002283F88F
:102B4C003E20FB681B6C43F02002FB681A6462B6E3
:102B5C0000BFFB68002283F83C200123A6E0FB6841
:102B6C001B685B6903F00403042BD9D1FB681B6859
:102B7C001A68FB681B6842F400721A60FB681B68D9
:102B8C001A69FB685B6AD2B21A70FB685B6A5A1CE2
:102B9C00FB685A62FB681B8D013B9AB2FB681A8575
:102BAC00FB685B8D9BB2013B9AB2FB685A8562B69F
:102BBC0000BFFB681B681A69FB685B6AD2B21A70AB
:102BCC00FB685B6A5A1CFB685A62FB681B8D013BF5
:102BDC009AB2FB681A85FB685B8D9BB2013B9AB27B
:102BEC00FB685A854EE07A6AB96BF86800F0BEFC57
:102BFC000346002B01D0012358E0FB681B681A69BF
:102C0C00FB685B6AD2B21A70FB685B6A5A1CFB6881
:102C1C005A62FB681B8D013B9AB2FB681A85FB68F4
:102C2C005B8D9BB2013B9AB2FB685A85FB681B68B3
:102C3C005B6903F00403042B24D1FB681B8D032B6D
:102C4C0007D1FB681B681A68FB681B6822F480625A
:102C5C001A60FB681B681A69FB685B6AD2B21A704F
:102C6C00FB685B6A5A1CFB685A62FB681B8D013B54
:102C7C009AB2FB681A85FB685B8D9BB2013B9AB2DA
:102C8C00FB685A85FB681B8D002B7FF488AEFB68B4
:102C9C00202283F83D20FB68002283F83E20FB684D
:102CAC00002283F83C20002300E00223184628373A
:102CBC00BD4680BD040001000000002089B5F81459
:102CCC0080B58AB002AFF8607A603B600B467B81BE
:102CDC00FEF70EFCF8610023BB61FB6893F83D30F6
:102CEC00DBB2202B40F01181FB69009319230122E8
:102CFC008849F86800F090FA0346002B01D00223B3
:102D0C0004E1FB6893F83C30012B01D10223FDE078
:102D1C00FB68012283F83C20FB681B681B6803F0EE
:102D2C000103012B07D0FB681B681A68FB681B6842
:102D3C0042F001021A60FB681B681A68FB681B688A
:102D4C0022F400621A60FB68242283F83D20FB68A1
:102D5C0000221A64FB68704ADA62FB681B681A6806
:102D6C00FB681B6842F480721A60FB6900933B6835
:102D7C0000224FF00111F86800F04EFA0346002BC8
:102D8C000DD0FB681B681B6803F48073B3F5807F60
:102D9C0003D1FB684FF400721A640323B6E07B89FD
:102DAC00DBB21A46FB681B6802F0FE021A61FEF7E2
:102DBC009FFBF861FB681B685B6903F00203022B45
:102DCC000CBF01230023DBB2FB75FB681B685B693E
:102DDC0003F48063B3F5806F0CBF01230023DBB2D7
:102DEC00BB7525E0FEF784FB0246FB69D31A3A68F3
:102DFC009A4202D33B68002B03D1FB68A02283F8D4
:102E0C003D20FB681B685B6903F00203022B0CBFBF
:102E1C0001230023DBB2FB75FB681B685B6903F4C1
:102E2C008063B3F5806F0CBF01230023DBB2BB754D
:102E3C00FB6893F83D30DBB2A02B05D0FB7D002B5B
:102E4C0002D1BB7D002BCDD0FB68202283F83D2026
:102E5C00FB681B685B6903F00203022B29D1FB683A
:102E6C001B681A68FB681B6842F400721A60002326
:102E7C003B61FB681B685B693B61FB681B689B697A
:102E8C003B613B69FB690093192301222149F868D6
:102E9C0000F0C2F90346002B01D0012336E0FB6899
:102EAC00202283F83D20FB68002283F83C2000237D
:102EBC002CE0FB681B681A68FB681B6842F4007204
:102ECC001A60FB681B686FF480625A61FB6900939F
:102EDC00192301220F49F86800F09EF90346002BD4
:102EEC0001D0012312E0BB690133BB61BA697B6875
:102EFC009A42FFF432AFFB68202283F83D20FB6836
:102F0C00002283F83C20012300E0022318462037DE
:102F1C00BD4680BD020010000000FFFF80B588B0E8
:102F2C0002AFF860084611461A4603467B810B46F1
:102F3C003B811346FB80FB681B681A68FB681B68A7
:102F4C0042F480721A607B6A00933B6A00224FF055
:102F5C000111F86800F060F90346002B0DD0FB68F6
:102F6C001B681B6803F48073B3F5807F03D1FB6887
:102F7C004FF400721A6403235FE07B89DBB21A46BC
:102F8C00FB681B6802F0FE021A617B6A3A6A2D49E3
:102F9C00F86800F0BBF90346002B01D001234CE08C
:102FAC0000237B61FB681B685B697B61FB681B68AA
:102FBC009B697B617B697A6A396AF86800F046FA2A
:102FCC000346002B0DD0FB681B6C042B07D1FB6850
:102FDC001B681A68FB681B6842F400721A600123B4
:102FEC002BE0FB88012B05D13B89DAB2FB681B680F
:102FFC001A6121E03B891B0A9BB2DAB2FB681B68A1
:10300C001A617A6A396AF86800F020FA0346002BD4
:10301C000DD0FB681B6C042B07D1FB681B681A686E
:10302C00FB681B6842F400721A60012305E03B89BF
:10303C00DAB2FB681B681A61002318461837BD46C4
:10304C0080BD00BF0200010080B588B002AFF860FF
:10305C00084611461A4603467B810B463B811346B4
:10306C00FB80FB681B681A68FB681B6842F4806273
:10307C001A60FB681B681A68FB681B6842F4807254
:10308C001A607B6A00933B6A00224FF00111F868CA
:10309C0000F0C2F80346002B0DD0FB681B681B68C0
:1030AC0003F48073B3F5807F03D1FB684FF4007297
:1030BC001A640323AAE07B89DBB21A46FB681B68FF
:1030CC0002F0FE021A617B6A3A6A5249F86800F013
:1030DC001DF90346002B01D0012397E000237B61EF
:1030EC00FB681B685B697B61FB681B689B697B6188
:1030FC007B697A6A396AF86800F0A8F90346002BF4
:10310C000DD0FB681B6C042B07D1FB681B681A687D
:10311C00FB681B6842F400721A60012376E0FB889E
:10312C00012B05D13B89DAB2FB681B681A6121E0DF
:10313C003B891B0A9BB2DAB2FB681B681A617A6A7C
:10314C00396AF86800F082F90346002B0DD0FB6851
:10315C001B6C042B07D1FB681B681A68FB681B6887
:10316C0042F400721A60012350E03B89DAB2FB682A
:10317C001B681A617A6A396AF86800F067F90346C5
:10318C00002B0DD0FB681B6C042B07D1FB681B6854
:10319C001A68FB681B6842F400721A60012335E060
:1031AC00FB681B681A68FB681B6842F480721A6023
:1031BC007B6A00933B6A00224FF00111F86800F023
:1031CC002BF80346002B0DD0FB681B681B6803F41F
:1031DC008073B3F5807F03D1FB684FF400721A64DF
:1031EC00032313E07B89DBB243F00103DAB2FB6803
:1031FC001B681A617B6A3A6A0649F86800F086F81F
:10320C000346002B01D0012300E000231846183799
:10321C00BD4680BD0200010080B584B000AFF860EF
:10322C00B9603B601346FB7148E03B68B3F1FF3F6C
:10323C0044D0FEF75DF90246BB69D31A3A689A424C
:10324C0002D33B68002B39D1BB681B0CDBB2012BC2
:10325C000DD1FB681B685B69DA43BB6813409BB2FA
:10326C00002B0CBF01230023DBB21A460CE0FB68D9
:10327C001B689B69DA43BB6813409BB2002B0CBFE5
:10328C0001230023DBB21A46FB799A4216D1FB6864
:10329C0000221A63FB68202283F83D20FB68002281
:1032AC0083F83E20FB681B6C43F02002FB681A6419
:1032BC00FB68002283F83C20012323E0BB681B0C35
:1032CC00DBB2012B0DD1FB681B685B69DA43BB6871
:1032DC0013409BB2002B0CBF01230023DBB21A4618
:1032EC000CE0FB681B689B69DA43BB6813409BB21C
:1032FC00002B0CBF01230023DBB21A46FB799A4248
:10330C0093D0002318461037BD4680BD80B584B0DD
:10331C0000AFF860B9607A603B6071E0FB681B68D5
:10332C005B6903F48063B3F5806F23D1FB681B6882
:10333C001A68FB681B6842F400721A60FB681B6811
:10334C006FF480625A61FB6800221A63FB682022CA
:10335C0083F83D20FB68002283F83E20FB681B6C41
:10336C0043F00402FB681A64FB68002283F83C20DB
:10337C00012367E07B68B3F1FF3F41D0FEF7B8F85B
:10338C0002463B68D31A7A689A4202D37B68002BB8
:10339C0036D1BB681B0CDBB2012B0CD1FB681B6854
:1033AC005B69DA43BB6813409BB2002B14BF01234B
:1033BC000023DBB20BE0FB681B689B69DA43BB683C
:1033CC0013409BB2002B14BF01230023DBB2002B54
:1033DC0016D0FB6800221A63FB68202283F83D207C
:1033EC00FB68002283F83E20FB681B6C43F0200234
:1033FC00FB681A64FB68002283F83C20012321E05F
:10340C00BB681B0CDBB2012B0CD1FB681B685B6926
:10341C00DA43BB6813409BB2002B14BF012300237B
:10342C00DBB20BE0FB681B689B69DA43BB6813409B
:10343C009BB2002B14BF01230023DBB2002B7FF4C3
:10344C006DAF002318461037BD4680BD80B584B0E3
:10345C0000AFF860B9607A6034E0F86800F0E3F827
:10346C000346002B01D0012334E0BB68B3F1FF3FCE
:10347C0028D0FEF73DF802467B68D31ABA689A4208
:10348C0002D3BB68002B1DD1FB681B685B6903F082
:10349C008003802B16D0FB6800221A63FB68202265
:1034AC0083F83D20FB68002283F83E20FB681B6CF0
:1034BC0043F02002FB681A64FB68002283F83C206E
:1034CC00012307E0FB681B685B6903F08003802B1A
:1034DC00C3D1002318461037BD4680BD80B584B0DB
:1034EC0000AFF860B9607A6034E0F86800F09BF8DF
:1034FC000346002B01D0012334E0BB68B3F1FF3F3E
:10350C0028D0FDF7F5FF02467B68D31ABA689A42B9
:10351C0002D3BB68002B1DD1FB681B685B6903F0F1
:10352C000403042B16D0FB6800221A63FB682022CC
:10353C0083F83D20FB68002283F83E20FB681B6C5F
:10354C0043F02002FB681A64FB68002283F83C20DD
:10355C00012307E0FB681B685B6903F00403042B81
:10356C00C3D1002318461037BD4680BD80B584B04A
:10357C0000AFF860B9607A6049E0FB681B685B6972
:10358C0003F01003102B19D1FB681B686FF01002AD
:10359C005A61FB6800221A63FB68202283F83D20E5
:1035AC00FB68002283F83E20FB681A6CFB681A64E7
:1035BC00FB68002283F83C20012330E0FDF798FFE4
:1035CC0002467B68D31ABA689A4202D3BB68002BB6
:1035DC001DD1FB681B685B6903F04003402B16D0C0
:1035EC00FB6800221A63FB68202283F83D20FB68ED
:1035FC00002283F83E20FB681B6C43F02002FB6822
:10360C001A64FB68002283F83C20012307E0FB6866
:10361C001B685B6903F04003402BAED100231846B6
:10362C001037BD4680BD80B483B000AF78607B6836
:10363C001B685B6903F48063B3F5806F1BD17B68F7
:10364C001B686FF480625A617B6800221A637B6886
:10365C00202283F83D207B68002283F83E207B6883
:10366C001B6C43F004027B681A647B68002283F8AD
:10367C003C20012300E0002318460C37BD4680BCDB
:10368C007047000080B586B000AF78607B68002B77
:10369C0001D1012372E27B681B6803F00103002B4C
:1036AC0000F08780924B5B6803F00C03042B0CD06A
:1036BC008F4B5B6803F00C03082B12D18C4B5B68AF
:1036CC0003F48033B3F5803F0BD1894B1B6803F4B3
:1036DC000033002B6CD07B685B68002B68D1012316
:1036EC004CE27B685B68B3F5803F06D1804B1B686E
:1036FC007F4A43F4803313602EE07B685B68002BB9
:10370C000CD17B4B1B687A4A23F480331360784BC3
:10371C001B68774A23F4802313601DE07B685B6889
:10372C00B3F5A02F0CD1724B1B68714A43F4802364
:10373C0013606F4B1B686E4A43F4803313600BE0CD
:10374C006B4B1B686A4A23F480331360684B1B680D
:10375C00674A23F4802313607B685B68002B13D0CB
:10376C00FDF7C6FE386108E0FDF7C2FE02463B6974
:10377C00D31A642B01D9032300E25D4B1B6803F4BD
:10378C000033002BF0D014E0FDF7B2FE386108E0F6
:10379C00FDF7AEFE02463B69D31A642B01D9032315
:1037AC00ECE1534B1B6803F40033002BF0D100E029
:1037BC0000BF7B681B6803F00203002B63D04C4BEB
:1037CC005B6803F00C03002B0BD0494B5B6803F0D8
:1037DC000C03082B1CD1464B5B6803F48033002B85
:1037EC0016D1434B1B6803F00203002B05D07B68FA
:1037FC001B69012B01D00123C0E13D4B1B6823F059
:10380C00F8027B685B69DB00394913430B603AE0D3
:10381C007B681B69002B20D0364B01221A60FDF708
:10382C0067FE386108E0FDF763FE02463B69D31A78
:10383C00022B01D90323A1E12D4B1B6803F00203DA
:10384C00002BF0D02A4B1B6823F0F8027B685B69D5
:10385C00DB00274913430B6015E0264B00221A604E
:10386C00FDF746FE386108E0FDF742FE02463B6973
:10387C00D31A022B01D9032380E11D4B1B6803F0E3
:10388C000203002BF0D17B681B6803F00803002BAC
:10389C003AD07B689B69002B19D0174B01221A6018
:1038AC00FDF726FE386108E0FDF722FE02463B6973
:1038BC00D31A022B01D9032360E10D4B5B6A03F091
:1038CC000203002BF0D0012000F0CEFA1CE00A4BD2
:1038DC0000221A60FDF70CFE38610FE0FDF708FEC0
:1038EC0002463B69D31A022B08D9032346E100BFD9
:1038FC00001002400000424280044242924B5B6A3C
:10390C0003F00203002BE9D17B681B6803F004036E
:10391C00002B00F0A6800023FB758B4BDB6903F0BA
:10392C008053002B0DD1884BDB69874A43F08053C1
:10393C00D361854BDB6903F08053BB60BB6801230B
:10394C00FB75824B1B6803F48073002B18D17F4BE3
:10395C001B687E4A43F480731360FDF7C9FD386120
:10396C0008E0FDF7C5FD02463B69D31A642B01D96B
:10397C00032303E1754B1B6803F48073002BF0D019
:10398C007B68DB68012B06D16F4B1B6A6E4A43F0D8
:10399C00010313622DE07B68DB68002B0CD16A4BB2
:1039AC001B6A694A23F001031362674B1B6A664A60
:1039BC0023F0040313621CE07B68DB68052B0CD13D
:1039CC00614B1B6A604A43F0040313625E4B1B6A33
:1039DC005D4A43F0010313620BE05B4B1B6A5A4ACE
:1039EC0023F001031362584B1B6A574A23F004035C
:1039FC0013627B68DB68002B15D0FDF779FD38610D
:103A0C000AE0FDF775FD02463B69D31A41F2883294
:103A1C00934201D90323B1E04B4B1B6A03F0020321
:103A2C00002BEED014E0FDF763FD38610AE0FDF7E2
:103A3C005FFD02463B69D31A41F28832934201D9A9
:103A4C0003239BE0404B1B6A03F00203002BEED1D7
:103A5C00FB7D012B05D13C4BDB693B4A23F08053AA
:103A6C00D3617B68DB69002B00F08780364B5B6889
:103A7C0003F00C03082B61D07B68DB69022B46D169
:103A8C00334B00221A60FDF733FD386108E0FDF777
:103A9C002FFD02463B69D31A022B01D903236DE09B
:103AAC00294B1B6803F00073002BF0D17B681B6A59
:103ABC00B3F5803F08D1244B5B6823F400327B685C
:103ACC009B68214913434B601F4B5B6823F47412B2
:103ADC007B68196A7B685B6A0B431B4913434B6019
:103AEC001B4B01221A60FDF703FD386108E0FDF75E
:103AFC00FFFC02463B69D31A022B01D903233DE09C
:103B0C00114B1B6803F00073002BF0D035E0104B09
:103B1C0000221A60FDF7ECFC386108E0FDF7E8FCC8
:103B2C0002463B69D31A022B01D9032326E0064B2C
:103B3C001B6803F00073002BF0D11EE07B68DB697F
:103B4C00012B07D1012319E0001002400070004046
:103B5C00600042420B4B5B68FB60FB6803F48032F5
:103B6C007B681B6A9A4206D1FB6803F470127B686F
:103B7C005B6A9A4201D0012300E0002318461837F3
:103B8C00BD4680BD0010024080B584B000AF7860A7
:103B9C0039607B68002B01D10123D0E06A4B1B6894
:103BAC0003F007033A689A4210D9674B1B6823F05D
:103BBC00070265493B6813430B60634B1B6803F0BA
:103BCC0007033A689A4201D00123B8E07B681B686E
:103BDC0003F00203002B20D07B681B6803F0040366
:103BEC00002B05D0594B5B68584A43F4E063536093
:103BFC007B681B6803F00803002B05D0534B5B68F4
:103C0C00524A43F460535360504B5B6823F0F0020C
:103C1C007B689B684D4913434B607B681B6803F0C2
:103C2C000103002B40D07B685B68012B07D1474B0D
:103C3C001B6803F40033002B15D101237FE07B6854
:103C4C005B68022B07D1414B1B6803F00073002B00
:103C5C0009D1012373E03D4B1B6803F00203002BD9
:103C6C0001D101236BE0394B5B6823F003027B68C5
:103C7C005B68364913434B60FDF73AFCF8600AE089
:103C8C00FDF736FC0246FB68D31A41F288329342A8
:103C9C0001D9032353E02D4B5B6803F00C027B68C6
:103CAC005B689B009A42EBD1274B1B6803F0070320
:103CBC003A689A4210D2244B1B6823F0070222491F
:103CCC003B6813430B60204B1B6803F007033A68F7
:103CDC009A4201D0012332E07B681B6803F0040395
:103CEC00002B08D0194B5B6823F4E0627B68DB681F
:103CFC00164913434B607B681B6803F00803002BC9
:103D0C0009D0124B5B6823F460527B681B69DB00A3
:103D1C000E4913434B6000F021F802460B4B5B68D5
:103D2C001B0903F00F030A49CB5C22FA03F3094A7F
:103D3C001360094B1B681846FDF798FB00231846C7
:103D4C001037BD4680BD00BF00200240001002406D
:103D5C0034530008000000200400002080B487B019
:103D6C0000AF0023FB600023BB6000237B610023BA
:103D7C007B6000233B611E4B5B68FB60FB6803F0C0
:103D8C000C03042B02D0082B03D027E0194B3B610A
:103D9C0027E0FB689B0C03F00F03174AD35C7B6096
:103DAC00FB6803F48033002B10D0114B5B685B0C69
:103DBC0003F00103114AD35CBB607B680D4A03FB23
:103DCC0002F2BB68B2FBF3F37B6104E07B680C4A44
:103DDC0002FB03F37B617B693B6102E0054B3B61BA
:103DEC0000BF3B6918461C37BD4680BC704700BFFE
:103DFC000010024000127A004C5300085C5300087B
:103E0C0000093D0080B400AF024B1B681846BD464C
:103E1C0080BC70470000002080B500AFFFF7F2FFB8
:103E2C000246054B5B681B0A03F007030349CB5C96
:103E3C0022FA03F3184680BD0010024044530008D8
:103E4C0080B500AFFFF7DEFF0246054B5B68DB0A6F
:103E5C0003F007030349CB5C22FA03F3184680BD39
:103E6C00001002404453000880B485B000AF786065
:103E7C000A4B1B680A4AA2FB03235B0A7A6802FB03
:103E8C0003F3FB6000BFFB685A1EFA60002BF9D1EC
:103E9C0000BF00BF1437BD4680BC70470000002037
:103EAC00D34D621080B586B000AF786000233B61C3
:103EBC000023FB607B681B6803F00103002B7DD0A3
:103ECC000023FB754F4BDB6903F08053002B0DD1A6
:103EDC004C4BDB694B4A43F08053D361494BDB6954
:103EEC0003F08053BB60BB680123FB75464B1B681A
:103EFC0003F48073002B18D1434B1B68424A43F4E4
:103F0C0080731360FDF7F4FA386108E0FDF7F0FAFE
:103F1C0002463B69D31A642B01D903236DE03A4B5B
:103F2C001B6803F48073002BF0D0364B1B6A03F430
:103F3C004073FB60FB68002B2ED07B685B6803F43E
:103F4C004073FA689A4227D02E4B1B6A23F44073B5
:103F5C00FB602E4B01221A602C4B00221A60294A5E
:103F6C00FB681362FB6803F00103002B14D0FDF710
:103F7C00BFFA38610AE0FDF7BBFA02463B69D31A77
:103F8C0041F28832934201D9032336E01D4B1B6A60
:103F9C0003F00203002BEED01A4B1B6A23F4407281
:103FAC007B685B68174913430B62FB7D012B05D1C2
:103FBC00144BDB69134A23F08053D3617B681B6875
:103FCC0003F00203002B08D00E4B5B6823F4404235
:103FDC007B689B680B4913434B607B681B6803F041
:103FEC001003002B08D0074B5B6823F480027B681E
:103FFC00DB68044913434B60002318461837BD4651
:10400C0080BD00BF001002400070004040044242DE
:10401C0080B588B000AF786000237B610023FB6122
:10402C0000233B610023FB600023BB617B68102BEA
:10403C000AD07B68102B00F28A807B68012B45D05C
:10404C007B68022B75D082E0464B5B68FB60454B6E
:10405C001B6803F08073002B7BD0FB689B0C03F078
:10406C000F03414AD35C3B61FB6803F48033002BA4
:10407C0015D03C4B5B685B0C03F001033B4AD35CF3
:10408C007B61FB6803F48033002B0DD0384A7B69CD
:10409C00B2FBF3F23B6902FB03F3FB6104E03B6907
:1040AC00344A02FB03F3FB612E4B5B6803F4800381
:1040BC00B3F5800F02D1FB69BB614AE0FB695B0081
:1040CC002D4AA2FB03235B08BB6142E0254B1B6A14
:1040DC00FB60FB6803F44073B3F5807F08D1FB6889
:1040EC0003F00203002B03D04FF40043BB611FE02D
:1040FC00FB6803F44073B3F5007F09D1194B5B6A7D
:10410C0003F00203002B03D049F64043BB610FE0E0
:10411C00FB6803F44073B3F5407F1CD1114B1B6853
:10412C0003F40033002B16D04FF22443BB6112E092
:10413C0011E0FFF785FE02460A4B5B689B0B03F010
:10414C00030301335B00B2FBF3F3BB6104E000BF7C
:10415C0002E000BF00E000BFBB6918462037BD4637
:10416C0080BD00BF0010024060530008705300086F
:10417C0000127A0000093D00ABAAAAAA80B582B051
:10418C0000AF78607B68002B01D1012341E07B6894
:10419C0093F83D30DBB2002B06D17B68002283F80C
:1041AC003C207868FDF764F87B68022283F83D2098
:1041BC007B681A687B6804331946104600F0B2FA23
:1041CC007B68012283F846207B68012283F83E201D
:1041DC007B68012283F83F207B68012283F8402012
:1041EC007B68012283F841207B68012283F84220FE
:1041FC007B68012283F843207B68012283F84420EA
:10420C007B68012283F845207B68012283F83D20DE
:10421C00002318460837BD4680BD80B582B000AF7C
:10422C0078607B68002B01D1012341E07B6893F817
:10423C003D30DBB2002B06D17B68002283F83C209A
:10424C00786800F039F87B68022283F83D207B689F
:10425C001A687B6804331946104600F063FA7B68D1
:10426C00012283F846207B68012283F83E207B687C
:10427C00012283F83F207B68012283F840207B6871
:10428C00012283F841207B68012283F842207B685D
:10429C00012283F843207B68012283F844207B6849
:1042AC00012283F845207B68012283F83D200023FE
:1042BC0018460837BD4680BD80B483B000AF786027
:1042CC0000BF0C37BD4680BC7047000080B584B081
:1042DC0000AF786039603B68002B09D17B6893F89C
:1042EC003E30DBB2012B14BF01230023DBB222E0F2
:1042FC003B68042B09D17B6893F83F30DBB2012B70
:10430C0014BF01230023DBB215E03B68082B09D155
:10431C007B6893F84030DBB2012B14BF01230023E0
:10432C00DBB208E07B6893F84130DBB2012B14BFA1
:10433C0001230023DBB2002B01D001235EE03B689C
:10434C00002B04D17B68022283F83E2013E03B68EB
:10435C00042B04D17B68022283F83F200BE03B68DE
:10436C00082B04D17B68022283F8402003E07B6891
:10437C00022283F841207B681B68012239681846A9
:10438C0000F05CFC7B681B681E4A934207D17B687B
:10439C001B685A6C7B681B6842F400425A647B6849
:1043AC001B68184A93420ED07B681B68B3F1804F90
:1043BC0009D07B681B68144A934204D07B681B6845
:1043CC00124A934211D17B681B689B6803F0070368
:1043DC00FB60FB68062B10D07B681B681A687B6837
:1043EC001B6842F001021A6007E07B681B681A68C0
:1043FC007B681B6842F001021A60002318461037D4
:10440C00BD4680BD002C0140000400400008004067
:10441C0080B586B000AFF860B9607A600023FB7598
:10442C00FB6893F83C30012B01D10223AEE0FB6812
:10443C00012283F83C207B680C2B00F29F8001A2A8
:10444C0052F823F085440008894500088945000886
:10445C0089450008C54400088945000889450008BD
:10446C00894500080745000889450008894500086A
:10447C008945000847450008FB681B68B968184661
:10448C0000F0BEF9FB681B689A69FB681B6842F078
:10449C0008029A61FB681B689A69FB681B6822F02A
:1044AC0004029A61FB681B689969BB681A69FB680E
:1044BC001B680A439A6164E0FB681B68B96818467C
:1044CC0000F004FAFB681B689A69FB681B6842F4ED
:1044DC0000629A61FB681B689A69FB681B6822F48E
:1044EC0080629A61FB681B689969BB681B691A0238
:1044FC00FB681B680A439A6143E0FB681B68B96858
:10450C00184600F04DFAFB681B68DA69FB681B68FB
:10451C0042F00802DA61FB681B68DA69FB681B6809
:10452C0022F00402DA61FB681B68D969BB681A695E
:10453C00FB681B680A43DA6123E0FB681B68B968F7
:10454C00184600F097FAFB681B68DA69FB681B6871
:10455C0042F40062DA61FB681B68DA69FB681B686D
:10456C0022F48062DA61FB681B68D969BB681B693D
:10457C001A02FB681B680A43DA6102E00123FB752F
:10458C0000BFFB68002283F83C20FB7D18461837DF
:10459C00BD4680BD80B584B000AF78603960002323
:1045AC00FB737B6893F83C30012B01D10223B4E000
:1045BC007B68012283F83C207B68022283F83D2033
:1045CC007B681B689B68BB60BB6823F07703BB6090
:1045DC00BB6823F47F43BB607B681B68BA689A6036
:1045EC003B681B68B3F5005F3ED0B3F5005F00F28B
:1045FC008780B3F5805F00F08680B3F5805F7FD84D
:10460C00702B1AD0702B7BD8602B50D0602B77D8A6
:10461C00502B3CD0502B73D8402B58D0402B6FD8FC
:10462C00302B64D0302B6BD8202B60D0202B67D84C
:10463C00002B5CD0102B5AD062E07B6818683B686A
:10464C0099683B685A683B68DB6800F0D8FA7B686D
:10465C001B689B68BB60BB6843F07703BB607B68DF
:10466C001B68BA689A604FE07B6818683B68996869
:10467C003B685A683B68DB6800F0C1FA7B681B68D2
:10468C009A687B681B6842F480429A603CE07B68C5
:10469C0018683B6859683B68DB681A4600F038FAC2
:1046AC007B681B685021184600F08FFA2CE07B6861
:1046BC0018683B6859683B68DB681A4600F056FA84
:1046CC007B681B686021184600F07FFA1CE07B6851
:1046DC0018683B6859683B68DB681A4600F018FAA2
:1046EC007B681B684021184600F06FFA0CE07B6871
:1046FC001A683B681B681946104600F066FA03E01E
:10470C000123FB7300E000BF7B68012283F83D208E
:10471C007B68002283F83C20FB7B18461037BD4693
:10472C0080BD000080B485B000AF786039607B68D4
:10473C001B68FB607B682F4A93420BD07B68B3F1FC
:10474C00804F07D07B682C4A934203D07B682B4A5E
:10475C00934208D1FB6823F07003FB603B685B68F5
:10476C00FA681343FB607B68224A93420BD07B6848
:10477C00B3F1804F07D07B681F4A934203D07B680C
:10478C001E4A934208D1FB6823F44073FB603B68DC
:10479C00DB68FA681343FB60FB6823F080023B681C
:1047AC005B691343FB607B68FA681A603B689A6824
:1047BC007B68DA623B681A687B689A627B680D4A90
:1047CC00934203D13B681A697B681A637B680122A8
:1047DC005A617B681B6903F00103002B05D07B68D1
:1047EC001B6923F001027B681A6100BF1437BD46B8
:1047FC0080BC7047002C01400004004000080040C1
:10480C0080B487B000AF786039607B681B6A7B61CD
:10481C007B681B6A23F001027B681A627B685B6809
:10482C003B617B689B69FB60FB6823F07003FB605A
:10483C00FB6823F00303FB603B681B68FA681343B7
:10484C00FB607B6923F002037B613B689B687A69A0
:10485C0013437B617B681C4A93420CD17B6923F028
:10486C0008037B613B68DB687A6913437B617B6976
:10487C0023F004037B617B68134A934211D13B699B
:10488C0023F480733B613B6923F400733B613B6809
:10489C005B693A6913433B613B689B693A69134313
:1048AC003B617B683A695A607B68FA689A613B683D
:1048BC005A687B685A637B687A691A6200BF1C3736
:1048CC00BD4680BC704700BF002C014080B487B04F
:1048DC0000AF786039607B681B6A7B617B681B6A00
:1048EC0023F010027B681A627B685B683B617B6813
:1048FC009B69FB60FB6823F4E043FB60FB6823F4DB
:10490C004073FB603B681B681B02FA681343FB6037
:10491C007B6923F020037B613B689B681B017A69F0
:10492C0013437B617B681D4A93420DD17B6923F055
:10493C0080037B613B68DB681B017A6913437B61F5
:10494C007B6923F040037B617B68144A934213D14B
:10495C003B6923F480633B613B6923F400633B6157
:10496C003B685B699B003A6913433B613B689B69FD
:10497C009B003A6913433B617B683A695A607B68D8
:10498C00FA689A613B685A687B689A637B687A69B3
:10499C001A6200BF1C37BD4680BC7047002C01401A
:1049AC0080B487B000AF786039607B681B6A7B612C
:1049BC007B681B6A23F480727B681A627B685B6875
:1049CC003B617B68DB69FB60FB6823F07003FB6079
:1049DC00FB6823F00303FB603B681B68FA68134316
:1049EC00FB607B6923F400737B613B689B681B0253
:1049FC007A6913437B617B681D4A93420DD17B69B5
:104A0C0023F400637B613B68DB681B027A69134308
:104A1C007B617B6923F480637B617B68144A9342DE
:104A2C0013D13B6923F480533B613B6923F400535E
:104A3C003B613B685B691B013A6913433B613B6813
:104A4C009B691B013A6913433B617B683A695A6065
:104A5C007B68FA68DA613B685A687B68DA637B6862
:104A6C007A691A6200BF1C37BD4680BC704700BF14
:104A7C00002C014080B487B000AF786039607B684F
:104A8C001B6A3B617B681B6A23F480527B681A6249
:104A9C007B685B687B617B68DB69FB60FB6823F48C
:104AAC00E043FB60FB6823F44073FB603B681B68CE
:104ABC001B02FA681343FB603B6923F400533B6110
:104ACC003B689B681B033A6913433B617B680F4A45
:104ADC00934209D17B6923F480437B613B685B691A
:104AEC009B017A6913437B617B687A695A607B68A6
:104AFC00FA68DA613B685A687B681A647B683A69C1
:104B0C001A6200BF1C37BD4680BC7047002C0140A8
:104B1C0080B487B000AFF860B9607A60FB681B6A3C
:104B2C007B61FB681B6A23F00102FB681A62FB685D
:104B3C009B693B613B6923F0F0033B617B681B0184
:104B4C003A6913433B617B6923F00A037B617A6901
:104B5C00BB6813437B61FB683A699A61FB687A69AD
:104B6C001A6200BF1C37BD4680BC704780B487B04A
:104B7C0000AFF860B9607A60FB681B6A7B61FB6808
:104B8C001B6A23F01002FB681A62FB689B693B618D
:104B9C003B6923F470433B617B681B033A69134305
:104BAC003B617B6923F0A0037B61BB681B017A69C5
:104BBC0013437B61FB683A699A61FB687A691A62F4
:104BCC0000BF1C37BD4680BC704780B485B000AFB9
:104BDC00786039607B689B68FB60FB6823F070032E
:104BEC00FB603A68FB68134343F00703FB607B6888
:104BFC00FA689A6000BF1437BD4680BC704780B419
:104C0C0087B000AFF860B9607A603B60FB689B6866
:104C1C007B617B6923F47F437B613B681A027B6871
:104C2C001A43BB6813437A6913437B61FB687A6947
:104C3C009A6000BF1C37BD4680BC704780B487B0FB
:104C4C0000AFF860B9607A60BB6803F01F03012203
:104C5C0002FA03F37B61FB681A6A7B69DB431A4037
:104C6C00FB681A62FB681A6ABB6803F01F03796859
:104C7C0001FA03F31A43FB681A6200BF1C37BD46E6
:104C8C0080BC704780B485B000AF786039607B68B9
:104C9C0093F83C30012B01D1022346E07B680122C2
:104CAC0083F83C207B68022283F83D207B681B68DC
:104CBC005B68FB607B681B689B68BB60FB6823F0D0
:104CCC007003FB603B681B68FA681343FB607B68EE
:104CDC001B68FA685A607B681B68164A93420ED0B0
:104CEC007B681B68B3F1804F09D07B681B68124A44
:104CFC00934204D07B681B68104A93420CD1BB686A
:104D0C0023F08003BB603B685B68BA681343BB60ED
:104D1C007B681B68BA689A607B68012283F83D2027
:104D2C007B68002283F83C20002318461437BD46CC
:104D3C0080BC7047002C014000040040000800407B
:104D4C0080B582B000AF78607B68002B01D1012365
:104D5C0042E07B6893F84130DBB2002B06D17B68D4
:104D6C00002283F840207868FCF7F8FA7B6824224C
:104D7C0083F841207B681B68DA687B681B6822F427
:104D8C000052DA60786800F009FA7B681B681A69CF
:104D9C007B681B6822F490421A617B681B685A6915
:104DAC007B681B6822F02A025A617B681B68DA68F0
:104DBC007B681B6842F40052DA607B6800225A64FC
:104DCC007B68202283F841207B68202283F84220D4
:104DDC007B6800225A63002318460837BD4680BD05
:104DEC0080B58AB002AFF860B9603B601346FB80B7
:104DFC0000237B61FB6893F84130DBB2202B75D12B
:104E0C00BB68002B02D0FB88002B01D101236EE084
:104E1C00FB6800225A64FB68212283F84120FCF7CE
:104E2C0067FB7861FB68FA889A84FB68FA88DA84F5
:104E3C00FB689B68B3F5805F08D1FB681B69002B8E
:104E4C0004D10023FB61BB68BB6103E0BB68FB6161
:104E5C000023BB612EE03B6800937B69002280211C
:104E6C00F86800F0DFF80346002B05D0FB68202221
:104E7C0083F8412003233AE0FB69002B0BD1BB697B
:104E8C001B881A46FB681B68C2F308025A60BB6990
:104E9C000233BB6107E0FB691A78FB681B685A6038
:104EAC00FB690133FB61FB68DB8C9BB2013B9AB263
:104EBC00FB68DA84FB68DB8C9BB2002BCBD13B68A4
:104ECC0000937B6900224021F86800F0ABF80346A0
:104EDC00002B05D0FB68202283F84120032306E039
:104EEC00FB68202283F84120002300E002231846AF
:104EFC002037BD4680BD80B58AB002AFF860B9607E
:104F0C003B601346FB8000237B61FB6893F84230C7
:104F1C00DBB2202B40F08180BB68002B02D0FB88D9
:104F2C00002B01D1012379E0FB6800225A64FB6855
:104F3C00222283F84220FB6800221A63FCF7D8FA7D
:104F4C007861FB68FA889A85FB68FA88DA85FB68D1
:104F5C009B68B3F5805F08D1FB681B69002B04D1FB
:104F6C000023FB61BB68BB6103E0BB68FB610023F2
:104F7C00BB6147E03B6800937B6900222021F86805
:104F8C0000F050F80346002B05D0FB68202283F874
:104F9C004220032342E0FB69002B0CD1FB681B6809
:104FAC005B689BB2C3F308039AB2BB691A80BB69F6
:104FBC000233BB611FE0FB689B68B3F5805F07D0D1
:104FCC00FB689B68002B0AD1FB681B69002B06D180
:104FDC00FB681B685B68DAB2FB691A7008E0FB6857
:104FEC001B685B68DBB203F07F03DAB2FB691A70F3
:104FFC00FB690133FB61FB68DB8D9BB2013B9AB211
:10500C00FB68DA85FB68DB8D9BB2002BB2D1FB68A9
:10501C00202283F84220002300E002231846203788
:10502C00BD4680BD80B586B000AFF860B9603B600E
:10503C001346FB713BE03B6AB3F1FF3F37D0FCF703
:10504C0057FA02463B68D31A3A6A9A4202D33B6A31
:10505C00002B01D103233AE0FB681B68DB6803F0EB
:10506C000403002B23D0BB68802B20D0BB68402BC3
:10507C001DD0FB681B681B6803F00803082B16D1B6
:10508C0000237B61FB681B681B687B61FB681B68EA
:10509C005B687B617B69F86800F01DF8FB6808228F
:1050AC005A64FB68002283F8402001230FE0FB6860
:1050BC001B681A68BB681340BA689A420CBF01237C
:1050CC000023DBB21A46FB799A42B4D0002318466F
:1050DC001837BD4680BD80B495B000AF78607B6852
:1050EC001B680C337B637B6B53E8003F3B633B6B70
:1050FC0023F49073FB647B681B680C33FA6C3A6482
:10510C00FB63F96B3A6C41E80023BB63BB6B002B70
:10511C00E5D17B681B6814333B623B6A53E8003F64
:10512C00FB61FB6923F00103BB647B681B681433D0
:10513C00BA6CFA62BB62B96AFA6A41E800237B6214
:10514C007B6A002BE5D17B681B6B012B19D17B682B
:10515C001B680C33FB60FB6853E8003FBB60BB680B
:10516C0023F010037B647B681B680C337A6CBA6188
:10517C007B617969BA6941E800233B613B69002B8B
:10518C00E5D17B68202283F842207B6800221A63D9
:10519C0000BF5437BD4680BC7047000080B584B05A
:1051AC0000AF78607B681B681B6923F440517B68F7
:1051BC00DA687B681B680A431A617B689A687B68AB
:1051CC001B691A437B685B691343BB607B681B6874
:1051DC00DB6823F4B05323F00C037A681268B968C7
:1051EC000B43D3607B681B685B6923F440717B685D
:1051FC009A697B681B680A435A617B681B682C4A56
:10520C00934203D1FEF71CFEF86002E0FEF704FEA9
:10521C00F860FA6813469B0013449A001A447B68A2
:10522C005B689B00B2FBF3F3224AA2FB03235B09EE
:10523C001901FA6813469B0013449A001A447B68C0
:10524C005B689B00B2FBF3F21A4BA3FB02035B09F6
:10525C00642000FB03F3D31A1B013233154AA2FB63
:10526C0003235B0903F0F0031944FA6813469B000F
:10527C0013449A001A447B685B689B00B2FBF3F200
:10528C000C4BA3FB02035B09642000FB03F3D31A52
:10529C001B013233074AA2FB03235B0903F00F0205
:1052AC007B681B680A449A6000BF1037BD4680BDFE
:1052BC00003801401F85EB5103460244934200D154
:1052CC00704703F8011BF9E770B500260C4D0D4C27
:1052DC00641BA410A64209D100F01AF800260A4D4E
:1052EC000A4C641BA410A64205D170BD55F8043BB2
:1052FC0098470136EEE755F8043B98470136F2E73C
:10530C007453000874530008745300087853000851
:10531C00F8B500BFF8BC08BC9E467047F8B500BF96
:08532C00F8BC08BC9E46704766
:105334000000000000000000010203040607080941
:105344000000000001020304020304050607080923
:105354000A0B0C0D0E0F10100102000002030405CD
:10536400060708090A0B0C0D0E0F101001020000AD
:0453740031010008FB
:045378000D0100081B
:0C537C0000127A00100000000100000088
:0400000508001401DA
:00000001FF
